{
  "contractName": "GBCDeFi",
  "abi": [
    {
      "inputs": [],
      "stateMutability": "nonpayable",
      "type": "constructor"
    },
    {
      "anonymous": false,
      "inputs": [
        {
          "indexed": true,
          "internalType": "address",
          "name": "owner",
          "type": "address"
        },
        {
          "indexed": true,
          "internalType": "address",
          "name": "approved",
          "type": "address"
        },
        {
          "indexed": true,
          "internalType": "uint256",
          "name": "tokenId",
          "type": "uint256"
        }
      ],
      "name": "Approval",
      "type": "event"
    },
    {
      "anonymous": false,
      "inputs": [
        {
          "indexed": true,
          "internalType": "address",
          "name": "owner",
          "type": "address"
        },
        {
          "indexed": true,
          "internalType": "address",
          "name": "operator",
          "type": "address"
        },
        {
          "indexed": false,
          "internalType": "bool",
          "name": "approved",
          "type": "bool"
        }
      ],
      "name": "ApprovalForAll",
      "type": "event"
    },
    {
      "anonymous": false,
      "inputs": [
        {
          "indexed": true,
          "internalType": "address",
          "name": "from",
          "type": "address"
        },
        {
          "indexed": true,
          "internalType": "address",
          "name": "to",
          "type": "address"
        },
        {
          "indexed": true,
          "internalType": "uint256",
          "name": "tokenId",
          "type": "uint256"
        }
      ],
      "name": "Transfer",
      "type": "event"
    },
    {
      "inputs": [
        {
          "internalType": "address",
          "name": "to",
          "type": "address"
        },
        {
          "internalType": "uint256",
          "name": "tokenId",
          "type": "uint256"
        }
      ],
      "name": "approve",
      "outputs": [],
      "stateMutability": "nonpayable",
      "type": "function"
    },
    {
      "inputs": [
        {
          "internalType": "address",
          "name": "owner",
          "type": "address"
        }
      ],
      "name": "balanceOf",
      "outputs": [
        {
          "internalType": "uint256",
          "name": "",
          "type": "uint256"
        }
      ],
      "stateMutability": "view",
      "type": "function",
      "constant": true
    },
    {
      "inputs": [
        {
          "internalType": "uint256",
          "name": "tokenId",
          "type": "uint256"
        }
      ],
      "name": "getApproved",
      "outputs": [
        {
          "internalType": "address",
          "name": "",
          "type": "address"
        }
      ],
      "stateMutability": "view",
      "type": "function",
      "constant": true
    },
    {
      "inputs": [
        {
          "internalType": "address",
          "name": "owner",
          "type": "address"
        },
        {
          "internalType": "address",
          "name": "operator",
          "type": "address"
        }
      ],
      "name": "isApprovedForAll",
      "outputs": [
        {
          "internalType": "bool",
          "name": "",
          "type": "bool"
        }
      ],
      "stateMutability": "view",
      "type": "function",
      "constant": true
    },
    {
      "inputs": [],
      "name": "manager",
      "outputs": [
        {
          "internalType": "address",
          "name": "",
          "type": "address"
        }
      ],
      "stateMutability": "view",
      "type": "function",
      "constant": true
    },
    {
      "inputs": [],
      "name": "name",
      "outputs": [
        {
          "internalType": "string",
          "name": "",
          "type": "string"
        }
      ],
      "stateMutability": "view",
      "type": "function",
      "constant": true
    },
    {
      "inputs": [
        {
          "internalType": "uint256",
          "name": "tokenId",
          "type": "uint256"
        }
      ],
      "name": "ownerOf",
      "outputs": [
        {
          "internalType": "address",
          "name": "",
          "type": "address"
        }
      ],
      "stateMutability": "view",
      "type": "function",
      "constant": true
    },
    {
      "inputs": [
        {
          "internalType": "address",
          "name": "from",
          "type": "address"
        },
        {
          "internalType": "address",
          "name": "to",
          "type": "address"
        },
        {
          "internalType": "uint256",
          "name": "tokenId",
          "type": "uint256"
        }
      ],
      "name": "safeTransferFrom",
      "outputs": [],
      "stateMutability": "nonpayable",
      "type": "function"
    },
    {
      "inputs": [
        {
          "internalType": "address",
          "name": "from",
          "type": "address"
        },
        {
          "internalType": "address",
          "name": "to",
          "type": "address"
        },
        {
          "internalType": "uint256",
          "name": "tokenId",
          "type": "uint256"
        },
        {
          "internalType": "bytes",
          "name": "_data",
          "type": "bytes"
        }
      ],
      "name": "safeTransferFrom",
      "outputs": [],
      "stateMutability": "nonpayable",
      "type": "function"
    },
    {
      "inputs": [
        {
          "internalType": "address",
          "name": "operator",
          "type": "address"
        },
        {
          "internalType": "bool",
          "name": "approved",
          "type": "bool"
        }
      ],
      "name": "setApprovalForAll",
      "outputs": [],
      "stateMutability": "nonpayable",
      "type": "function"
    },
    {
      "inputs": [
        {
          "internalType": "bytes4",
          "name": "interfaceId",
          "type": "bytes4"
        }
      ],
      "name": "supportsInterface",
      "outputs": [
        {
          "internalType": "bool",
          "name": "",
          "type": "bool"
        }
      ],
      "stateMutability": "view",
      "type": "function",
      "constant": true
    },
    {
      "inputs": [],
      "name": "symbol",
      "outputs": [
        {
          "internalType": "string",
          "name": "",
          "type": "string"
        }
      ],
      "stateMutability": "view",
      "type": "function",
      "constant": true
    },
    {
      "inputs": [
        {
          "internalType": "uint256",
          "name": "tokenId",
          "type": "uint256"
        }
      ],
      "name": "tokenURI",
      "outputs": [
        {
          "internalType": "string",
          "name": "",
          "type": "string"
        }
      ],
      "stateMutability": "view",
      "type": "function",
      "constant": true
    },
    {
      "inputs": [
        {
          "internalType": "address",
          "name": "",
          "type": "address"
        }
      ],
      "name": "tokens",
      "outputs": [
        {
          "internalType": "uint256",
          "name": "id",
          "type": "uint256"
        },
        {
          "internalType": "uint256",
          "name": "amount",
          "type": "uint256"
        },
        {
          "internalType": "uint256",
          "name": "rate",
          "type": "uint256"
        },
        {
          "internalType": "uint256",
          "name": "initDate",
          "type": "uint256"
        },
        {
          "internalType": "enum GBCDeFi.borrowNFTStatus",
          "name": "status",
          "type": "uint8"
        },
        {
          "internalType": "address",
          "name": "owner",
          "type": "address"
        }
      ],
      "stateMutability": "view",
      "type": "function",
      "constant": true
    },
    {
      "inputs": [
        {
          "internalType": "address",
          "name": "from",
          "type": "address"
        },
        {
          "internalType": "address",
          "name": "to",
          "type": "address"
        },
        {
          "internalType": "uint256",
          "name": "tokenId",
          "type": "uint256"
        }
      ],
      "name": "transferFrom",
      "outputs": [],
      "stateMutability": "nonpayable",
      "type": "function"
    },
    {
      "inputs": [
        {
          "internalType": "address",
          "name": "_addborrower",
          "type": "address"
        },
        {
          "internalType": "uint256",
          "name": "_amount",
          "type": "uint256"
        }
      ],
      "name": "createTokenLoan",
      "outputs": [
        {
          "internalType": "uint256",
          "name": "",
          "type": "uint256"
        }
      ],
      "stateMutability": "payable",
      "type": "function",
      "payable": true
    },
    {
      "inputs": [
        {
          "internalType": "address",
          "name": "_addborrower",
          "type": "address"
        }
      ],
      "name": "getvalueInterestLoan",
      "outputs": [
        {
          "internalType": "uint256",
          "name": "",
          "type": "uint256"
        }
      ],
      "stateMutability": "view",
      "type": "function",
      "constant": true
    },
    {
      "inputs": [
        {
          "internalType": "address",
          "name": "_addborrower",
          "type": "address"
        }
      ],
      "name": "getTotalValuePayTokenLoan",
      "outputs": [
        {
          "internalType": "uint256",
          "name": "",
          "type": "uint256"
        }
      ],
      "stateMutability": "view",
      "type": "function",
      "constant": true
    }
  ],
  "bytecode": "0x60806040523480156200001157600080fd5b506040518060400160405280600881526020017f47424320446546690000000000000000000000000000000000000000000000008152506040518060400160405280600781526020017f474243446546690000000000000000000000000000000000000000000000000081525081600090805190602001906200009692919062000165565b508060019080519060200190620000af92919062000165565b505050604051620000c090620001f6565b604051809103906000f080158015620000dd573d6000803e3d6000fd5b50600960006101000a81548173ffffffffffffffffffffffffffffffffffffffff021916908373ffffffffffffffffffffffffffffffffffffffff16021790555033600660006101000a81548173ffffffffffffffffffffffffffffffffffffffff021916908373ffffffffffffffffffffffffffffffffffffffff16021790555062000288565b828054620001739062000223565b90600052602060002090601f016020900481019282620001975760008555620001e3565b82601f10620001b257805160ff1916838001178555620001e3565b82800160010185558215620001e3579182015b82811115620001e2578251825591602001919060010190620001c5565b5b509050620001f2919062000204565b5090565b6103e580620037d283390190565b5b808211156200021f57600081600090555060010162000205565b5090565b600060028204905060018216806200023c57607f821691505b6020821081141562000253576200025262000259565b5b50919050565b7f4e487b7100000000000000000000000000000000000000000000000000000000600052602260045260246000fd5b61353a80620002986000396000f3fe6080604052600436106101095760003560e01c80636352211e11610095578063a22cb46511610064578063a22cb465146103a8578063b88d4fde146103d1578063c87b56dd146103fa578063e486033914610437578063e985e9c51461047957610109565b80636352211e146102d357806370a08231146103105780637f70c7541461034d57806395d89b411461037d57610109565b8063095ea7b3116100dc578063095ea7b3146101f05780631f73b8e61461021957806323b872dd1461025657806342842e0e1461027f578063481c6a75146102a857610109565b806301ffc9a71461010e57806306fdde031461014b578063081812fc1461017657806309318b97146101b3575b600080fd5b34801561011a57600080fd5b5061013560048036038101906101309190612353565b6104b6565b60405161014291906127fa565b60405180910390f35b34801561015757600080fd5b50610160610598565b60405161016d9190612815565b60405180910390f35b34801561018257600080fd5b5061019d600480360381019061019891906123a5565b61062a565b6040516101aa9190612793565b60405180910390f35b3480156101bf57600080fd5b506101da60048036038101906101d591906121ac565b6106af565b6040516101e79190612a97565b60405180910390f35b3480156101fc57600080fd5b5061021760048036038101906102129190612317565b610793565b005b34801561022557600080fd5b50610240600480360381019061023b91906121ac565b6108ab565b60405161024d9190612a97565b60405180910390f35b34801561026257600080fd5b5061027d60048036038101906102789190612211565b610ad6565b005b34801561028b57600080fd5b506102a660048036038101906102a19190612211565b610b36565b005b3480156102b457600080fd5b506102bd610b56565b6040516102ca9190612793565b60405180910390f35b3480156102df57600080fd5b506102fa60048036038101906102f591906123a5565b610b7c565b6040516103079190612793565b60405180910390f35b34801561031c57600080fd5b50610337600480360381019061033291906121ac565b610c2e565b6040516103449190612a97565b60405180910390f35b61036760048036038101906103629190612317565b610ce6565b6040516103749190612a97565b60405180910390f35b34801561038957600080fd5b506103926111c6565b60405161039f9190612815565b60405180910390f35b3480156103b457600080fd5b506103cf60048036038101906103ca91906122db565b611258565b005b3480156103dd57600080fd5b506103f860048036038101906103f39190612260565b6113d9565b005b34801561040657600080fd5b50610421600480360381019061041c91906123a5565b61143b565b60405161042e9190612815565b60405180910390f35b34801561044357600080fd5b5061045e600480360381019061045991906121ac565b6114e2565b60405161047096959493929190612ab2565b60405180910390f35b34801561048557600080fd5b506104a0600480360381019061049b91906121d5565b61154b565b6040516104ad91906127fa565b60405180910390f35b60007f80ac58cd000000000000000000000000000000000000000000000000000000007bffffffffffffffffffffffffffffffffffffffffffffffffffffffff1916827bffffffffffffffffffffffffffffffffffffffffffffffffffffffff1916148061058157507f5b5e139f000000000000000000000000000000000000000000000000000000007bffffffffffffffffffffffffffffffffffffffffffffffffffffffff1916827bffffffffffffffffffffffffffffffffffffffffffffffffffffffff1916145b806105915750610590826115df565b5b9050919050565b6060600080546105a790612d9c565b80601f01602080910402602001604051908101604052809291908181526020018280546105d390612d9c565b80156106205780601f106105f557610100808354040283529160200191610620565b820191906000526020600020905b81548152906001019060200180831161060357829003601f168201915b5050505050905090565b600061063582611649565b610674576040517f08c379a000000000000000000000000000000000000000000000000000000000815260040161066b906129b7565b60405180910390fd5b6004600083815260200190815260200160002060009054906101000a900473ffffffffffffffffffffffffffffffffffffffff169050919050565b600080600860008473ffffffffffffffffffffffffffffffffffffffff1673ffffffffffffffffffffffffffffffffffffffff168152602001908152602001600020600101541415610736576040517f08c379a000000000000000000000000000000000000000000000000000000000815260040161072d90612a77565b60405180910390fd5b61073f826108ab565b600860008473ffffffffffffffffffffffffffffffffffffffff1673ffffffffffffffffffffffffffffffffffffffff1681526020019081526020016000206001015461078c9190612bac565b9050919050565b600061079e82610b7c565b90508073ffffffffffffffffffffffffffffffffffffffff168373ffffffffffffffffffffffffffffffffffffffff16141561080f576040517f08c379a000000000000000000000000000000000000000000000000000000000815260040161080690612a37565b60405180910390fd5b8073ffffffffffffffffffffffffffffffffffffffff1661082e6116b5565b73ffffffffffffffffffffffffffffffffffffffff16148061085d575061085c816108576116b5565b61154b565b5b61089c576040517f08c379a000000000000000000000000000000000000000000000000000000000815260040161089390612917565b60405180910390fd5b6108a683836116bd565b505050565b600080600860008473ffffffffffffffffffffffffffffffffffffffff1673ffffffffffffffffffffffffffffffffffffffff168152602001908152602001600020600101541415610932576040517f08c379a000000000000000000000000000000000000000000000000000000000815260040161092990612a77565b60405180910390fd5b6000806018603c80600860008873ffffffffffffffffffffffffffffffffffffffff1673ffffffffffffffffffffffffffffffffffffffff16815260200190815260200160002060030154426109889190612c8d565b6109929190612c02565b61099c9190612c02565b6109a69190612c02565b116109b2576001610a24565b6018603c80600860008773ffffffffffffffffffffffffffffffffffffffff1673ffffffffffffffffffffffffffffffffffffffff1681526020019081526020016000206003015442610a059190612c8d565b610a0f9190612c02565b610a199190612c02565b610a239190612c02565b5b9050612710600860008573ffffffffffffffffffffffffffffffffffffffff1673ffffffffffffffffffffffffffffffffffffffff16815260200190815260200160002060020154600860008673ffffffffffffffffffffffffffffffffffffffff1673ffffffffffffffffffffffffffffffffffffffff16815260200190815260200160002060010154610ab99190612c33565b610ac39190612c02565b81610ace9190612c33565b915050919050565b610ae7610ae16116b5565b82611776565b610b26576040517f08c379a0000000000000000000000000000000000000000000000000000000008152600401610b1d90612a57565b60405180910390fd5b610b31838383611854565b505050565b610b51838383604051806020016040528060008152506113d9565b505050565b600660009054906101000a900473ffffffffffffffffffffffffffffffffffffffff1681565b6000806002600084815260200190815260200160002060009054906101000a900473ffffffffffffffffffffffffffffffffffffffff169050600073ffffffffffffffffffffffffffffffffffffffff168173ffffffffffffffffffffffffffffffffffffffff161415610c25576040517f08c379a0000000000000000000000000000000000000000000000000000000008152600401610c1c90612957565b60405180910390fd5b80915050919050565b60008073ffffffffffffffffffffffffffffffffffffffff168273ffffffffffffffffffffffffffffffffffffffff161415610c9f576040517f08c379a0000000000000000000000000000000000000000000000000000000008152600401610c9690612937565b60405180910390fd5b600360008373ffffffffffffffffffffffffffffffffffffffff1673ffffffffffffffffffffffffffffffffffffffff168152602001908152602001600020549050919050565b6000600660009054906101000a900473ffffffffffffffffffffffffffffffffffffffff1673ffffffffffffffffffffffffffffffffffffffff163373ffffffffffffffffffffffffffffffffffffffff1614610d78576040517f08c379a0000000000000000000000000000000000000000000000000000000008152600401610d6f90612977565b60405180910390fd5b600073ffffffffffffffffffffffffffffffffffffffff168373ffffffffffffffffffffffffffffffffffffffff1614158015610de25750600073ffffffffffffffffffffffffffffffffffffffff163373ffffffffffffffffffffffffffffffffffffffff1614155b610e21576040517f08c379a0000000000000000000000000000000000000000000000000000000008152600401610e1890612a17565b60405180910390fd5b60008211610e64576040517f08c379a0000000000000000000000000000000000000000000000000000000008152600401610e5b90612837565b60405180910390fd5b6000600860008573ffffffffffffffffffffffffffffffffffffffff1673ffffffffffffffffffffffffffffffffffffffff1681526020019081526020016000206001015414610ee9576040517f08c379a0000000000000000000000000000000000000000000000000000000008152600401610ee090612857565b60405180910390fd5b60006040518060c001604052806007548152602001848152602001600960009054906101000a900473ffffffffffffffffffffffffffffffffffffffff1673ffffffffffffffffffffffffffffffffffffffff1663679aefce6040518163ffffffff1660e01b815260040160206040518083038186803b158015610f6c57600080fd5b505afa158015610f80573d6000803e3d6000fd5b505050506040513d601f19601f82011682018060405250810190610fa491906123ce565b815260200142815260200160006001811115610fe9577f4e487b7100000000000000000000000000000000000000000000000000000000600052602160045260246000fd5b81526020018573ffffffffffffffffffffffffffffffffffffffff16815250905080600860008673ffffffffffffffffffffffffffffffffffffffff1673ffffffffffffffffffffffffffffffffffffffff1681526020019081526020016000206000820151816000015560208201518160010155604082015181600201556060820151816003015560808201518160040160006101000a81548160ff021916908360018111156110c3577f4e487b7100000000000000000000000000000000000000000000000000000000600052602160045260246000fd5b021790555060a08201518160040160016101000a81548173ffffffffffffffffffffffffffffffffffffffff021916908373ffffffffffffffffffffffffffffffffffffffff16021790555090505061111e33600754611ab0565b82600860008673ffffffffffffffffffffffffffffffffffffffff1673ffffffffffffffffffffffffffffffffffffffff1681526020019081526020016000206001015414611196577f4e487b7100000000000000000000000000000000000000000000000000000000600052600160045260246000fd5b600760008154809291906111a990612dff565b919050555060016007546111bd9190612c8d565b91505092915050565b6060600180546111d590612d9c565b80601f016020809104026020016040519081016040528092919081815260200182805461120190612d9c565b801561124e5780601f106112235761010080835404028352916020019161124e565b820191906000526020600020905b81548152906001019060200180831161123157829003601f168201915b5050505050905090565b6112606116b5565b73ffffffffffffffffffffffffffffffffffffffff168273ffffffffffffffffffffffffffffffffffffffff1614156112ce576040517f08c379a00000000000000000000000000000000000000000000000000000000081526004016112c5906128d7565b60405180910390fd5b80600560006112db6116b5565b73ffffffffffffffffffffffffffffffffffffffff1673ffffffffffffffffffffffffffffffffffffffff16815260200190815260200160002060008473ffffffffffffffffffffffffffffffffffffffff1673ffffffffffffffffffffffffffffffffffffffff16815260200190815260200160002060006101000a81548160ff0219169083151502179055508173ffffffffffffffffffffffffffffffffffffffff166113886116b5565b73ffffffffffffffffffffffffffffffffffffffff167f17307eab39ab6107e8899845ad3d59bd9653f200f220920489ca2b5937696c31836040516113cd91906127fa565b60405180910390a35050565b6113ea6113e46116b5565b83611776565b611429576040517f08c379a000000000000000000000000000000000000000000000000000000000815260040161142090612a57565b60405180910390fd5b61143584848484611ace565b50505050565b606061144682611649565b611485576040517f08c379a000000000000000000000000000000000000000000000000000000000815260040161147c906129f7565b60405180910390fd5b600061148f611b2a565b905060008151116114af57604051806020016040528060008152506114da565b806114b984611b41565b6040516020016114ca92919061276f565b6040516020818303038152906040525b915050919050565b60086020528060005260406000206000915090508060000154908060010154908060020154908060030154908060040160009054906101000a900460ff16908060040160019054906101000a900473ffffffffffffffffffffffffffffffffffffffff16905086565b6000600560008473ffffffffffffffffffffffffffffffffffffffff1673ffffffffffffffffffffffffffffffffffffffff16815260200190815260200160002060008373ffffffffffffffffffffffffffffffffffffffff1673ffffffffffffffffffffffffffffffffffffffff16815260200190815260200160002060009054906101000a900460ff16905092915050565b60007f01ffc9a7000000000000000000000000000000000000000000000000000000007bffffffffffffffffffffffffffffffffffffffffffffffffffffffff1916827bffffffffffffffffffffffffffffffffffffffffffffffffffffffff1916149050919050565b60008073ffffffffffffffffffffffffffffffffffffffff166002600084815260200190815260200160002060009054906101000a900473ffffffffffffffffffffffffffffffffffffffff1673ffffffffffffffffffffffffffffffffffffffff1614159050919050565b600033905090565b816004600083815260200190815260200160002060006101000a81548173ffffffffffffffffffffffffffffffffffffffff021916908373ffffffffffffffffffffffffffffffffffffffff160217905550808273ffffffffffffffffffffffffffffffffffffffff1661173083610b7c565b73ffffffffffffffffffffffffffffffffffffffff167f8c5be1e5ebec7d5bd14f71427d1e84f3dd0314c0f7b2291e5b200ac8c7c3b92560405160405180910390a45050565b600061178182611649565b6117c0576040517f08c379a00000000000000000000000000000000000000000000000000000000081526004016117b7906128f7565b60405180910390fd5b60006117cb83610b7c565b90508073ffffffffffffffffffffffffffffffffffffffff168473ffffffffffffffffffffffffffffffffffffffff16148061183a57508373ffffffffffffffffffffffffffffffffffffffff166118228461062a565b73ffffffffffffffffffffffffffffffffffffffff16145b8061184b575061184a818561154b565b5b91505092915050565b8273ffffffffffffffffffffffffffffffffffffffff1661187482610b7c565b73ffffffffffffffffffffffffffffffffffffffff16146118ca576040517f08c379a00000000000000000000000000000000000000000000000000000000081526004016118c1906129d7565b60405180910390fd5b600073ffffffffffffffffffffffffffffffffffffffff168273ffffffffffffffffffffffffffffffffffffffff16141561193a576040517f08c379a0000000000000000000000000000000000000000000000000000000008152600401611931906128b7565b60405180910390fd5b611945838383611cee565b6119506000826116bd565b6001600360008573ffffffffffffffffffffffffffffffffffffffff1673ffffffffffffffffffffffffffffffffffffffff16815260200190815260200160002060008282546119a09190612c8d565b925050819055506001600360008473ffffffffffffffffffffffffffffffffffffffff1673ffffffffffffffffffffffffffffffffffffffff16815260200190815260200160002060008282546119f79190612bac565b92505081905550816002600083815260200190815260200160002060006101000a81548173ffffffffffffffffffffffffffffffffffffffff021916908373ffffffffffffffffffffffffffffffffffffffff160217905550808273ffffffffffffffffffffffffffffffffffffffff168473ffffffffffffffffffffffffffffffffffffffff167fddf252ad1be2c89b69c2b068fc378daa952ba7f163c4a11628f55a4df523b3ef60405160405180910390a4505050565b611aca828260405180602001604052806000815250611cf3565b5050565b611ad9848484611854565b611ae584848484611d4e565b611b24576040517f08c379a0000000000000000000000000000000000000000000000000000000008152600401611b1b90612877565b60405180910390fd5b50505050565b606060405180602001604052806000815250905090565b60606000821415611b89576040518060400160405280600181526020017f30000000000000000000000000000000000000000000000000000000000000008152509050611ce9565b600082905060005b60008214611bbb578080611ba490612dff565b915050600a82611bb49190612c02565b9150611b91565b60008167ffffffffffffffff811115611bfd577f4e487b7100000000000000000000000000000000000000000000000000000000600052604160045260246000fd5b6040519080825280601f01601f191660200182016040528015611c2f5781602001600182028036833780820191505090505b5090505b60008514611ce257600182611c489190612c8d565b9150600a85611c579190612e48565b6030611c639190612bac565b60f81b818381518110611c9f577f4e487b7100000000000000000000000000000000000000000000000000000000600052603260045260246000fd5b60200101907effffffffffffffffffffffffffffffffffffffffffffffffffffffffffffff1916908160001a905350600a85611cdb9190612c02565b9450611c33565b8093505050505b919050565b505050565b611cfd8383611ee5565b611d0a6000848484611d4e565b611d49576040517f08c379a0000000000000000000000000000000000000000000000000000000008152600401611d4090612877565b60405180910390fd5b505050565b6000611d6f8473ffffffffffffffffffffffffffffffffffffffff166120b3565b15611ed8578373ffffffffffffffffffffffffffffffffffffffff1663150b7a02611d986116b5565b8786866040518563ffffffff1660e01b8152600401611dba94939291906127ae565b602060405180830381600087803b158015611dd457600080fd5b505af1925050508015611e0557506040513d601f19601f82011682018060405250810190611e02919061237c565b60015b611e88573d8060008114611e35576040519150601f19603f3d011682016040523d82523d6000602084013e611e3a565b606091505b50600081511415611e80576040517f08c379a0000000000000000000000000000000000000000000000000000000008152600401611e7790612877565b60405180910390fd5b805181602001fd5b63150b7a0260e01b7bffffffffffffffffffffffffffffffffffffffffffffffffffffffff1916817bffffffffffffffffffffffffffffffffffffffffffffffffffffffff191614915050611edd565b600190505b949350505050565b600073ffffffffffffffffffffffffffffffffffffffff168273ffffffffffffffffffffffffffffffffffffffff161415611f55576040517f08c379a0000000000000000000000000000000000000000000000000000000008152600401611f4c90612997565b60405180910390fd5b611f5e81611649565b15611f9e576040517f08c379a0000000000000000000000000000000000000000000000000000000008152600401611f9590612897565b60405180910390fd5b611faa60008383611cee565b6001600360008473ffffffffffffffffffffffffffffffffffffffff1673ffffffffffffffffffffffffffffffffffffffff1681526020019081526020016000206000828254611ffa9190612bac565b92505081905550816002600083815260200190815260200160002060006101000a81548173ffffffffffffffffffffffffffffffffffffffff021916908373ffffffffffffffffffffffffffffffffffffffff160217905550808273ffffffffffffffffffffffffffffffffffffffff16600073ffffffffffffffffffffffffffffffffffffffff167fddf252ad1be2c89b69c2b068fc378daa952ba7f163c4a11628f55a4df523b3ef60405160405180910390a45050565b600080823b905060008111915050919050565b60006120d96120d484612b38565b612b13565b9050828152602081018484840111156120f157600080fd5b6120fc848285612d5a565b509392505050565b600081359050612113816134a8565b92915050565b600081359050612128816134bf565b92915050565b60008135905061213d816134d6565b92915050565b600081519050612152816134d6565b92915050565b600082601f83011261216957600080fd5b81356121798482602086016120c6565b91505092915050565b600081359050612191816134ed565b92915050565b6000815190506121a6816134ed565b92915050565b6000602082840312156121be57600080fd5b60006121cc84828501612104565b91505092915050565b600080604083850312156121e857600080fd5b60006121f685828601612104565b925050602061220785828601612104565b9150509250929050565b60008060006060848603121561222657600080fd5b600061223486828701612104565b935050602061224586828701612104565b925050604061225686828701612182565b9150509250925092565b6000806000806080858703121561227657600080fd5b600061228487828801612104565b945050602061229587828801612104565b93505060406122a687828801612182565b925050606085013567ffffffffffffffff8111156122c357600080fd5b6122cf87828801612158565b91505092959194509250565b600080604083850312156122ee57600080fd5b60006122fc85828601612104565b925050602061230d85828601612119565b9150509250929050565b6000806040838503121561232a57600080fd5b600061233885828601612104565b925050602061234985828601612182565b9150509250929050565b60006020828403121561236557600080fd5b60006123738482850161212e565b91505092915050565b60006020828403121561238e57600080fd5b600061239c84828501612143565b91505092915050565b6000602082840312156123b757600080fd5b60006123c584828501612182565b91505092915050565b6000602082840312156123e057600080fd5b60006123ee84828501612197565b91505092915050565b61240081612cc1565b82525050565b61240f81612cd3565b82525050565b600061242082612b69565b61242a8185612b7f565b935061243a818560208601612d69565b61244381612f64565b840191505092915050565b61245781612d48565b82525050565b600061246882612b74565b6124728185612b90565b9350612482818560208601612d69565b61248b81612f64565b840191505092915050565b60006124a182612b74565b6124ab8185612ba1565b93506124bb818560208601612d69565b80840191505092915050565b60006124d4601c83612b90565b91506124df82612f75565b602082019050919050565b60006124f7602983612b90565b915061250282612f9e565b604082019050919050565b600061251a603283612b90565b915061252582612fed565b604082019050919050565b600061253d601c83612b90565b91506125488261303c565b602082019050919050565b6000612560602483612b90565b915061256b82613065565b604082019050919050565b6000612583601983612b90565b915061258e826130b4565b602082019050919050565b60006125a6602c83612b90565b91506125b1826130dd565b604082019050919050565b60006125c9603883612b90565b91506125d48261312c565b604082019050919050565b60006125ec602a83612b90565b91506125f78261317b565b604082019050919050565b600061260f602983612b90565b915061261a826131ca565b604082019050919050565b6000612632602183612b90565b915061263d82613219565b604082019050919050565b6000612655602083612b90565b915061266082613268565b602082019050919050565b6000612678602c83612b90565b915061268382613291565b604082019050919050565b600061269b602983612b90565b91506126a6826132e0565b604082019050919050565b60006126be602f83612b90565b91506126c98261332f565b604082019050919050565b60006126e1601f83612b90565b91506126ec8261337e565b602082019050919050565b6000612704602183612b90565b915061270f826133a7565b604082019050919050565b6000612727603183612b90565b9150612732826133f6565b604082019050919050565b600061274a602b83612b90565b915061275582613445565b604082019050919050565b61276981612d3e565b82525050565b600061277b8285612496565b91506127878284612496565b91508190509392505050565b60006020820190506127a860008301846123f7565b92915050565b60006080820190506127c360008301876123f7565b6127d060208301866123f7565b6127dd6040830185612760565b81810360608301526127ef8184612415565b905095945050505050565b600060208201905061280f6000830184612406565b92915050565b6000602082019050818103600083015261282f818461245d565b905092915050565b60006020820190508181036000830152612850816124c7565b9050919050565b60006020820190508181036000830152612870816124ea565b9050919050565b600060208201905081810360008301526128908161250d565b9050919050565b600060208201905081810360008301526128b081612530565b9050919050565b600060208201905081810360008301526128d081612553565b9050919050565b600060208201905081810360008301526128f081612576565b9050919050565b6000602082019050818103600083015261291081612599565b9050919050565b60006020820190508181036000830152612930816125bc565b9050919050565b60006020820190508181036000830152612950816125df565b9050919050565b6000602082019050818103600083015261297081612602565b9050919050565b6000602082019050818103600083015261299081612625565b9050919050565b600060208201905081810360008301526129b081612648565b9050919050565b600060208201905081810360008301526129d08161266b565b9050919050565b600060208201905081810360008301526129f08161268e565b9050919050565b60006020820190508181036000830152612a10816126b1565b9050919050565b60006020820190508181036000830152612a30816126d4565b9050919050565b60006020820190508181036000830152612a50816126f7565b9050919050565b60006020820190508181036000830152612a708161271a565b9050919050565b60006020820190508181036000830152612a908161273d565b9050919050565b6000602082019050612aac6000830184612760565b92915050565b600060c082019050612ac76000830189612760565b612ad46020830188612760565b612ae16040830187612760565b612aee6060830186612760565b612afb608083018561244e565b612b0860a08301846123f7565b979650505050505050565b6000612b1d612b2e565b9050612b298282612dce565b919050565b6000604051905090565b600067ffffffffffffffff821115612b5357612b52612f35565b5b612b5c82612f64565b9050602081019050919050565b600081519050919050565b600081519050919050565b600082825260208201905092915050565b600082825260208201905092915050565b600081905092915050565b6000612bb782612d3e565b9150612bc283612d3e565b9250827fffffffffffffffffffffffffffffffffffffffffffffffffffffffffffffffff03821115612bf757612bf6612e79565b5b828201905092915050565b6000612c0d82612d3e565b9150612c1883612d3e565b925082612c2857612c27612ea8565b5b828204905092915050565b6000612c3e82612d3e565b9150612c4983612d3e565b9250817fffffffffffffffffffffffffffffffffffffffffffffffffffffffffffffffff0483118215151615612c8257612c81612e79565b5b828202905092915050565b6000612c9882612d3e565b9150612ca383612d3e565b925082821015612cb657612cb5612e79565b5b828203905092915050565b6000612ccc82612d1e565b9050919050565b60008115159050919050565b60007fffffffff0000000000000000000000000000000000000000000000000000000082169050919050565b6000819050612d1982613494565b919050565b600073ffffffffffffffffffffffffffffffffffffffff82169050919050565b6000819050919050565b6000612d5382612d0b565b9050919050565b82818337600083830152505050565b60005b83811015612d87578082015181840152602081019050612d6c565b83811115612d96576000848401525b50505050565b60006002820490506001821680612db457607f821691505b60208210811415612dc857612dc7612f06565b5b50919050565b612dd782612f64565b810181811067ffffffffffffffff82111715612df657612df5612f35565b5b80604052505050565b6000612e0a82612d3e565b91507fffffffffffffffffffffffffffffffffffffffffffffffffffffffffffffffff821415612e3d57612e3c612e79565b5b600182019050919050565b6000612e5382612d3e565b9150612e5e83612d3e565b925082612e6e57612e6d612ea8565b5b828206905092915050565b7f4e487b7100000000000000000000000000000000000000000000000000000000600052601160045260246000fd5b7f4e487b7100000000000000000000000000000000000000000000000000000000600052601260045260246000fd5b7f4e487b7100000000000000000000000000000000000000000000000000000000600052602160045260246000fd5b7f4e487b7100000000000000000000000000000000000000000000000000000000600052602260045260246000fd5b7f4e487b7100000000000000000000000000000000000000000000000000000000600052604160045260246000fd5b6000601f19601f8301169050919050565b7f47424320446546693a2063616e6e6f7420626f72726f77207a65726f00000000600082015250565b7f47424320446546693a2054686520626f72726f77657220616c7265616479206860008201527f61732061206c6f616e0000000000000000000000000000000000000000000000602082015250565b7f4552433732313a207472616e7366657220746f206e6f6e20455243373231526560008201527f63656976657220696d706c656d656e7465720000000000000000000000000000602082015250565b7f4552433732313a20746f6b656e20616c7265616479206d696e74656400000000600082015250565b7f4552433732313a207472616e7366657220746f20746865207a65726f2061646460008201527f7265737300000000000000000000000000000000000000000000000000000000602082015250565b7f4552433732313a20617070726f766520746f2063616c6c657200000000000000600082015250565b7f4552433732313a206f70657261746f7220717565727920666f72206e6f6e657860008201527f697374656e7420746f6b656e0000000000000000000000000000000000000000602082015250565b7f4552433732313a20617070726f76652063616c6c6572206973206e6f74206f7760008201527f6e6572206e6f7220617070726f76656420666f7220616c6c0000000000000000602082015250565b7f4552433732313a2062616c616e636520717565727920666f7220746865207a6560008201527f726f206164647265737300000000000000000000000000000000000000000000602082015250565b7f4552433732313a206f776e657220717565727920666f72206e6f6e657869737460008201527f656e7420746f6b656e0000000000000000000000000000000000000000000000602082015250565b7f47424320446546693a20596f7520617265206e6f7420746865206d616e61676560008201527f7200000000000000000000000000000000000000000000000000000000000000602082015250565b7f4552433732313a206d696e7420746f20746865207a65726f2061646472657373600082015250565b7f4552433732313a20617070726f76656420717565727920666f72206e6f6e657860008201527f697374656e7420746f6b656e0000000000000000000000000000000000000000602082015250565b7f4552433732313a207472616e73666572206f6620746f6b656e2074686174206960008201527f73206e6f74206f776e0000000000000000000000000000000000000000000000602082015250565b7f4552433732314d657461646174613a2055524920717565727920666f72206e6f60008201527f6e6578697374656e7420746f6b656e0000000000000000000000000000000000602082015250565b7f47424320446546693a206465746563746564207a65726f206164647265737300600082015250565b7f4552433732313a20617070726f76616c20746f2063757272656e74206f776e6560008201527f7200000000000000000000000000000000000000000000000000000000000000602082015250565b7f4552433732313a207472616e736665722063616c6c6572206973206e6f74206f60008201527f776e6572206e6f7220617070726f766564000000000000000000000000000000602082015250565b7f47424320446546693a2054686520626f72726f77657220646f6573206e6f742060008201527f686176652061206c6f616e000000000000000000000000000000000000000000602082015250565b600281106134a5576134a4612ed7565b5b50565b6134b181612cc1565b81146134bc57600080fd5b50565b6134c881612cd3565b81146134d357600080fd5b50565b6134df81612cdf565b81146134ea57600080fd5b50565b6134f681612d3e565b811461350157600080fd5b5056fea2646970667358221220ce41f056b05d41effec2d9b4709bf7c1fdb80a653640c7d26b458e72838cc68f64736f6c63430008030033608060405234801561001057600080fd5b506005600181905550336000806101000a81548173ffffffffffffffffffffffffffffffffffffffff021916908373ffffffffffffffffffffffffffffffffffffffff16021790555061037d806100686000396000f3fe608060405234801561001057600080fd5b50600436106100415760003560e01c8063086126d31461004657806334fcf43714610064578063679aefce14610080575b600080fd5b61004e61009e565b60405161005b919061025c565b60405180910390f35b61007e6004803603810190610079919061019e565b6100a4565b005b61008861017f565b604051610095919061025c565b60405180910390f35b60015481565b60008054906101000a900473ffffffffffffffffffffffffffffffffffffffff1673ffffffffffffffffffffffffffffffffffffffff163373ffffffffffffffffffffffffffffffffffffffff1614610132576040517f08c379a00000000000000000000000000000000000000000000000000000000081526004016101299061023c565b60405180910390fd5b60008111610175576040517f08c379a000000000000000000000000000000000000000000000000000000000815260040161016c9061021c565b60405180910390fd5b8060018190555050565b6000600154905090565b60008135905061019881610330565b92915050565b6000602082840312156101b057600080fd5b60006101be84828501610189565b91505092915050565b60006101d4602a83610277565b91506101df82610292565b604082019050919050565b60006101f7602183610277565b9150610202826102e1565b604082019050919050565b61021681610288565b82525050565b60006020820190508181036000830152610235816101c7565b9050919050565b60006020820190508181036000830152610255816101ea565b9050919050565b6000602082019050610271600083018461020d565b92915050565b600082825260208201905092915050565b6000819050919050565b7f47424320446546693a2056616c75652072617465206d757374206265206d6f7260008201527f6520746865207a65726f00000000000000000000000000000000000000000000602082015250565b7f47424320446546693a20596f7520617265206e6f7420746865206d616e61676560008201527f7200000000000000000000000000000000000000000000000000000000000000602082015250565b61033981610288565b811461034457600080fd5b5056fea26469706673582212200d2aeddaae4d4f5977ce604befb4acdcd3a712cbf98a57c15243e45ceef1323b64736f6c63430008030033",
  "immutableReferences": {},
  "source": "// SPDX-License-Identifier: MIT\r\npragma solidity ^0.8.0;\r\n\r\n//import \"https://github.com/OpenZeppelin/openzeppelin-contracts/blob/master/contracts/token/ERC721/ERC721.sol\";\r\n//import \"https://github.com/OpenZeppelin/openzeppelin-contracts/blob/master/contracts/token/ERC721/extensions/ERC721Enumerable.sol\";\r\nimport \"@openzeppelin/contracts/token/ERC721/ERC721.sol\";\r\nimport \"./GBCDeFiOracleRate.sol\";\r\n\r\n\r\ncontract GBCDeFi is ERC721 {\r\n    enum borrowNFTStatus {BORROWED, PAYED}\r\n    address public manager;\r\n    uint256 private _tokenIndexCursor;\r\n\r\n    struct borrowNFT { \r\n        uint256 id;\r\n        uint256 amount;\r\n        uint256 rate;\r\n        uint256 initDate;\r\n        borrowNFTStatus status;\r\n        address owner;\r\n    }\r\n\r\n    mapping(address => borrowNFT) public tokens;\r\n    GBCDeFiOracleRate valueOracle;\r\n\r\n    constructor() public ERC721(\"GBC DeFi\", \"GBCDeFi\") {\r\n        valueOracle = new GBCDeFiOracleRate();\r\n        manager = msg.sender;\r\n    }\r\n\r\n    //Function to create loan token by borrower  \r\n    function createTokenLoan(address _addborrower, uint256 _amount) \r\n        public payable\r\n        onlyManager\r\n        returns (uint256)\r\n    {\r\n        // Checks:\r\n        require(\r\n            _addborrower != address(0) && msg.sender != address(0),\r\n            \"GBC DeFi: detected zero address\"\r\n        );\r\n        require(_amount > 0, \"GBC DeFi: cannot borrow zero\");\r\n        require(\r\n            tokens[_addborrower].amount == 0,\r\n            \"GBC DeFi: The borrower already has a loan\"\r\n        );\r\n\r\n        //Create token loan\r\n        borrowNFT memory newborrowNFT =\r\n            borrowNFT({\r\n                id: _tokenIndexCursor,\r\n                amount: _amount,\r\n                rate: valueOracle.getRate(),\r\n                initDate: block.timestamp,\r\n                status: borrowNFTStatus.BORROWED,\r\n                owner: _addborrower\r\n            });\r\n        tokens[_addborrower] = newborrowNFT;\r\n        _safeMint(msg.sender, _tokenIndexCursor);\r\n        assert(tokens[_addborrower].amount == _amount);\r\n        _tokenIndexCursor++;\r\n        return _tokenIndexCursor - 1;\r\n    }\r\n\r\n\r\n    //Function to get the value of the interest that the borrower needs to pay \r\n    function getvalueInterestLoan(address _addborrower)\r\n        public\r\n        view\r\n        returns (uint256)\r\n    {\r\n        //returns (uint){\r\n        require(\r\n            tokens[_addborrower].amount != 0,\r\n            \"GBC DeFi: The borrower does not have a loan\"\r\n        );\r\n        //To find the days that the borrower has the loan\r\n        uint256 daysLoan =\r\n            ((((block.timestamp - tokens[_addborrower].initDate) / 60) / 60) /\r\n                24) > 0\r\n                ? ((((block.timestamp - tokens[_addborrower].initDate) / 60) /\r\n                    60) / 24)\r\n                : 1;\r\n        return\r\n            (daysLoan) *\r\n            ((tokens[_addborrower].amount * tokens[_addborrower].rate) / 10000);\r\n    }\r\n\r\n    //Function to get the total value of the loan that the borrower needs to pay \r\n    function getTotalValuePayTokenLoan(address _addborrower) public view returns(uint256){\r\n        //returns (uint){\r\n        require(\r\n            tokens[_addborrower].amount != 0,\r\n            \"GBC DeFi: The borrower does not have a loan\"\r\n        );\r\n        return tokens[_addborrower].amount + getvalueInterestLoan(_addborrower);\r\n    }\r\n\r\n    modifier onlyManager() {\r\n        require(msg.sender == manager, \"GBC DeFi: You are not the manager\");\r\n        _;\r\n    }\r\n}\r\n//0xAb8483F64d9C6d1EcF9b849Ae677dD3315835cb2\r\n//0x4B20993Bc481177ec7E8f571ceCaE8A9e22C02db\r\n",
  "sourcePath": "C:/AdvanceSC/GBCDeFi/contracts/GBCDeFi.sol",
  "compiler": {
    "name": "solc",
    "version": "0.8.3+commit.8d00100c.Emscripten.clang"
  },
  "schemaVersion": "3.3.4",
  "updatedAt": "2021-04-04T18:36:14.959Z",
  "networkType": "ethereum",
  "devdoc": {
    "kind": "dev",
    "methods": {
      "approve(address,uint256)": {
        "details": "See {IERC721-approve}."
      },
      "balanceOf(address)": {
        "details": "See {IERC721-balanceOf}."
      },
      "getApproved(uint256)": {
        "details": "See {IERC721-getApproved}."
      },
      "isApprovedForAll(address,address)": {
        "details": "See {IERC721-isApprovedForAll}."
      },
      "name()": {
        "details": "See {IERC721Metadata-name}."
      },
      "ownerOf(uint256)": {
        "details": "See {IERC721-ownerOf}."
      },
      "safeTransferFrom(address,address,uint256)": {
        "details": "See {IERC721-safeTransferFrom}."
      },
      "safeTransferFrom(address,address,uint256,bytes)": {
        "details": "See {IERC721-safeTransferFrom}."
      },
      "setApprovalForAll(address,bool)": {
        "details": "See {IERC721-setApprovalForAll}."
      },
      "supportsInterface(bytes4)": {
        "details": "See {IERC165-supportsInterface}."
      },
      "symbol()": {
        "details": "See {IERC721Metadata-symbol}."
      },
      "tokenURI(uint256)": {
        "details": "See {IERC721Metadata-tokenURI}."
      },
      "transferFrom(address,address,uint256)": {
        "details": "See {IERC721-transferFrom}."
      }
    },
    "version": 1
  },
  "userdoc": {
    "kind": "user",
    "methods": {},
    "version": 1
  }
}