{
  "contractName": "GBCDeFiOracleRate",
  "abi": [
    {
      "inputs": [],
      "stateMutability": "nonpayable",
      "type": "constructor"
    },
    {
      "inputs": [],
      "name": "getRate",
      "outputs": [
        {
          "internalType": "uint256",
          "name": "",
          "type": "uint256"
        }
      ],
      "stateMutability": "view",
      "type": "function",
      "constant": true
    },
    {
      "inputs": [
        {
          "internalType": "uint256",
          "name": "valuerate",
          "type": "uint256"
        }
      ],
      "name": "setRate",
      "outputs": [],
      "stateMutability": "nonpayable",
      "type": "function"
    }
  ],
  "bytecode": "0x608060405234801561001057600080fd5b506005600181905550610328806100286000396000f3fe608060405234801561001057600080fd5b50600436106100365760003560e01c806334fcf4371461003b578063679aefce14610057575b600080fd5b6100556004803603810190610050919061016f565b610075565b005b61005f610150565b60405161006c919061022d565b60405180910390f35b60008054906101000a900473ffffffffffffffffffffffffffffffffffffffff1673ffffffffffffffffffffffffffffffffffffffff163373ffffffffffffffffffffffffffffffffffffffff1614610103576040517f08c379a00000000000000000000000000000000000000000000000000000000081526004016100fa9061020d565b60405180910390fd5b60008111610146576040517f08c379a000000000000000000000000000000000000000000000000000000000815260040161013d906101ed565b60405180910390fd5b8060018190555050565b6000600154905090565b600081359050610169816102db565b92915050565b60006020828403121561018157600080fd5b600061018f8482850161015a565b91505092915050565b60006101a5601f83610248565b91506101b082610263565b602082019050919050565b60006101c8602183610248565b91506101d38261028c565b604082019050919050565b6101e781610259565b82525050565b6000602082019050818103600083015261020681610198565b9050919050565b60006020820190508181036000830152610226816101bb565b9050919050565b600060208201905061024260008301846101de565b92915050565b600082825260208201905092915050565b6000819050919050565b7f47424320446546693a206d757374206265206d6f726520746865207a65726f00600082015250565b7f47424320446546693a20596f7520617265206e6f7420746865206d616e61676560008201527f7200000000000000000000000000000000000000000000000000000000000000602082015250565b6102e481610259565b81146102ef57600080fd5b5056fea2646970667358221220e3df79351bfa05dd2ca5ea12063578c3f566a1d0bd0de2d201216f958cafb10b64736f6c63430008030033",
  "immutableReferences": {},
  "source": "// SPDX-License-Identifier: MIT\r\n\r\npragma solidity ^0.8.0;\r\n\r\ncontract GBCDeFiOracleRate {\r\n    address manager;\r\n    uint256 loanRate;\r\n\r\n    constructor() {\r\n        loanRate = 5;\r\n    }\r\n\r\n    function getRate() public view returns (uint256) {\r\n        return loanRate;\r\n    }\r\n\r\n    function setRate(uint256 valuerate) public onlyManager {\r\n        require(valuerate > 0, \"GBC DeFi: must be more the zero\");\r\n        loanRate = valuerate;\r\n    }\r\n\r\n    modifier onlyManager() {\r\n        require(msg.sender == manager, \"GBC DeFi: You are not the manager\");\r\n        _;\r\n    }\r\n}\r\n",
  "sourcePath": "C:/AdvanceSC/Assignment/contracts/GBCDeFiOracleRate.sol",
  "compiler": {
    "name": "solc",
    "version": "0.8.3+commit.8d00100c.Emscripten.clang"
  },
  "schemaVersion": "3.3.4",
  "updatedAt": "2021-04-02T11:48:43.298Z",
  "networkType": "ethereum",
  "devdoc": {
    "kind": "dev",
    "methods": {},
    "version": 1
  },
  "userdoc": {
    "kind": "user",
    "methods": {},
    "version": 1
  }
}