{
  "contractName": "GBCDeFiOracleRate",
  "abi": [
    {
      "inputs": [],
      "stateMutability": "nonpayable",
      "type": "constructor"
    },
    {
      "inputs": [],
      "name": "loanRate",
      "outputs": [
        {
          "internalType": "uint256",
          "name": "",
          "type": "uint256"
        }
      ],
      "stateMutability": "view",
      "type": "function",
      "constant": true
    },
    {
      "inputs": [],
      "name": "getRate",
      "outputs": [
        {
          "internalType": "uint256",
          "name": "",
          "type": "uint256"
        }
      ],
      "stateMutability": "view",
      "type": "function",
      "constant": true
    },
    {
      "inputs": [
        {
          "internalType": "uint256",
          "name": "valuerate",
          "type": "uint256"
        }
      ],
      "name": "setRate",
      "outputs": [],
      "stateMutability": "nonpayable",
      "type": "function"
    }
  ],
  "bytecode": "0x608060405234801561001057600080fd5b506005600181905550336000806101000a81548173ffffffffffffffffffffffffffffffffffffffff021916908373ffffffffffffffffffffffffffffffffffffffff16021790555061037d806100686000396000f3fe608060405234801561001057600080fd5b50600436106100415760003560e01c8063086126d31461004657806334fcf43714610064578063679aefce14610080575b600080fd5b61004e61009e565b60405161005b919061025c565b60405180910390f35b61007e6004803603810190610079919061019e565b6100a4565b005b61008861017f565b604051610095919061025c565b60405180910390f35b60015481565b60008054906101000a900473ffffffffffffffffffffffffffffffffffffffff1673ffffffffffffffffffffffffffffffffffffffff163373ffffffffffffffffffffffffffffffffffffffff1614610132576040517f08c379a00000000000000000000000000000000000000000000000000000000081526004016101299061023c565b60405180910390fd5b60008111610175576040517f08c379a000000000000000000000000000000000000000000000000000000000815260040161016c9061021c565b60405180910390fd5b8060018190555050565b6000600154905090565b60008135905061019881610330565b92915050565b6000602082840312156101b057600080fd5b60006101be84828501610189565b91505092915050565b60006101d4602a83610277565b91506101df82610292565b604082019050919050565b60006101f7602183610277565b9150610202826102e1565b604082019050919050565b61021681610288565b82525050565b60006020820190508181036000830152610235816101c7565b9050919050565b60006020820190508181036000830152610255816101ea565b9050919050565b6000602082019050610271600083018461020d565b92915050565b600082825260208201905092915050565b6000819050919050565b7f47424320446546693a2056616c75652072617465206d757374206265206d6f7260008201527f6520746865207a65726f00000000000000000000000000000000000000000000602082015250565b7f47424320446546693a20596f7520617265206e6f7420746865206d616e61676560008201527f7200000000000000000000000000000000000000000000000000000000000000602082015250565b61033981610288565b811461034457600080fd5b5056fea26469706673582212200d2aeddaae4d4f5977ce604befb4acdcd3a712cbf98a57c15243e45ceef1323b64736f6c63430008030033",
  "immutableReferences": {},
  "source": "// SPDX-License-Identifier: MIT\r\n\r\npragma solidity ^0.8.0;\r\n\r\ncontract GBCDeFiOracleRate {\r\n    address manager;\r\n    uint256 public loanRate;\r\n\r\n    constructor() {\r\n        loanRate = 5;\r\n        manager = msg.sender;\r\n    }\r\n\r\n    function getRate() public view returns (uint256) {\r\n        return loanRate;\r\n    }\r\n\r\n    function setRate(uint256 valuerate) public onlyManager {\r\n        require(valuerate > 0, \"GBC DeFi: Value rate must be more the zero\");\r\n        loanRate = valuerate;\r\n    }\r\n\r\n    modifier onlyManager() {\r\n        require(msg.sender == manager, \"GBC DeFi: You are not the manager\");\r\n        _;\r\n    }\r\n}\r\n",
  "sourcePath": "C:\\AdvanceSC\\GBCDeFi\\contracts\\GBCDeFiOracleRate.sol",
  "compiler": {
    "name": "solc",
    "version": "0.8.3+commit.8d00100c.Emscripten.clang"
  },
  "schemaVersion": "3.3.4",
  "updatedAt": "2021-04-04T14:34:00.344Z",
  "networkType": "ethereum",
  "devdoc": {
    "kind": "dev",
    "methods": {},
    "version": 1
  },
  "userdoc": {
    "kind": "user",
    "methods": {},
    "version": 1
  }
}