{
  "contractName": "GBCDeFi",
  "abi": [
    {
      "inputs": [],
      "stateMutability": "nonpayable",
      "type": "constructor"
    },
    {
      "anonymous": false,
      "inputs": [
        {
          "indexed": true,
          "internalType": "address",
          "name": "owner",
          "type": "address"
        },
        {
          "indexed": true,
          "internalType": "address",
          "name": "approved",
          "type": "address"
        },
        {
          "indexed": true,
          "internalType": "uint256",
          "name": "tokenId",
          "type": "uint256"
        }
      ],
      "name": "Approval",
      "type": "event"
    },
    {
      "anonymous": false,
      "inputs": [
        {
          "indexed": true,
          "internalType": "address",
          "name": "owner",
          "type": "address"
        },
        {
          "indexed": true,
          "internalType": "address",
          "name": "operator",
          "type": "address"
        },
        {
          "indexed": false,
          "internalType": "bool",
          "name": "approved",
          "type": "bool"
        }
      ],
      "name": "ApprovalForAll",
      "type": "event"
    },
    {
      "anonymous": false,
      "inputs": [
        {
          "indexed": true,
          "internalType": "address",
          "name": "from",
          "type": "address"
        },
        {
          "indexed": true,
          "internalType": "address",
          "name": "to",
          "type": "address"
        },
        {
          "indexed": true,
          "internalType": "uint256",
          "name": "tokenId",
          "type": "uint256"
        }
      ],
      "name": "Transfer",
      "type": "event"
    },
    {
      "inputs": [
        {
          "internalType": "address",
          "name": "to",
          "type": "address"
        },
        {
          "internalType": "uint256",
          "name": "tokenId",
          "type": "uint256"
        }
      ],
      "name": "approve",
      "outputs": [],
      "stateMutability": "nonpayable",
      "type": "function"
    },
    {
      "inputs": [
        {
          "internalType": "address",
          "name": "owner",
          "type": "address"
        }
      ],
      "name": "balanceOf",
      "outputs": [
        {
          "internalType": "uint256",
          "name": "",
          "type": "uint256"
        }
      ],
      "stateMutability": "view",
      "type": "function",
      "constant": true
    },
    {
      "inputs": [
        {
          "internalType": "uint256",
          "name": "tokenId",
          "type": "uint256"
        }
      ],
      "name": "getApproved",
      "outputs": [
        {
          "internalType": "address",
          "name": "",
          "type": "address"
        }
      ],
      "stateMutability": "view",
      "type": "function",
      "constant": true
    },
    {
      "inputs": [
        {
          "internalType": "address",
          "name": "owner",
          "type": "address"
        },
        {
          "internalType": "address",
          "name": "operator",
          "type": "address"
        }
      ],
      "name": "isApprovedForAll",
      "outputs": [
        {
          "internalType": "bool",
          "name": "",
          "type": "bool"
        }
      ],
      "stateMutability": "view",
      "type": "function",
      "constant": true
    },
    {
      "inputs": [],
      "name": "manager",
      "outputs": [
        {
          "internalType": "address",
          "name": "",
          "type": "address"
        }
      ],
      "stateMutability": "view",
      "type": "function",
      "constant": true
    },
    {
      "inputs": [],
      "name": "name",
      "outputs": [
        {
          "internalType": "string",
          "name": "",
          "type": "string"
        }
      ],
      "stateMutability": "view",
      "type": "function",
      "constant": true
    },
    {
      "inputs": [
        {
          "internalType": "uint256",
          "name": "tokenId",
          "type": "uint256"
        }
      ],
      "name": "ownerOf",
      "outputs": [
        {
          "internalType": "address",
          "name": "",
          "type": "address"
        }
      ],
      "stateMutability": "view",
      "type": "function",
      "constant": true
    },
    {
      "inputs": [
        {
          "internalType": "address",
          "name": "from",
          "type": "address"
        },
        {
          "internalType": "address",
          "name": "to",
          "type": "address"
        },
        {
          "internalType": "uint256",
          "name": "tokenId",
          "type": "uint256"
        }
      ],
      "name": "safeTransferFrom",
      "outputs": [],
      "stateMutability": "nonpayable",
      "type": "function"
    },
    {
      "inputs": [
        {
          "internalType": "address",
          "name": "from",
          "type": "address"
        },
        {
          "internalType": "address",
          "name": "to",
          "type": "address"
        },
        {
          "internalType": "uint256",
          "name": "tokenId",
          "type": "uint256"
        },
        {
          "internalType": "bytes",
          "name": "_data",
          "type": "bytes"
        }
      ],
      "name": "safeTransferFrom",
      "outputs": [],
      "stateMutability": "nonpayable",
      "type": "function"
    },
    {
      "inputs": [
        {
          "internalType": "address",
          "name": "operator",
          "type": "address"
        },
        {
          "internalType": "bool",
          "name": "approved",
          "type": "bool"
        }
      ],
      "name": "setApprovalForAll",
      "outputs": [],
      "stateMutability": "nonpayable",
      "type": "function"
    },
    {
      "inputs": [
        {
          "internalType": "bytes4",
          "name": "interfaceId",
          "type": "bytes4"
        }
      ],
      "name": "supportsInterface",
      "outputs": [
        {
          "internalType": "bool",
          "name": "",
          "type": "bool"
        }
      ],
      "stateMutability": "view",
      "type": "function",
      "constant": true
    },
    {
      "inputs": [],
      "name": "symbol",
      "outputs": [
        {
          "internalType": "string",
          "name": "",
          "type": "string"
        }
      ],
      "stateMutability": "view",
      "type": "function",
      "constant": true
    },
    {
      "inputs": [
        {
          "internalType": "uint256",
          "name": "index",
          "type": "uint256"
        }
      ],
      "name": "tokenByIndex",
      "outputs": [
        {
          "internalType": "uint256",
          "name": "",
          "type": "uint256"
        }
      ],
      "stateMutability": "view",
      "type": "function",
      "constant": true
    },
    {
      "inputs": [
        {
          "internalType": "address",
          "name": "owner",
          "type": "address"
        },
        {
          "internalType": "uint256",
          "name": "index",
          "type": "uint256"
        }
      ],
      "name": "tokenOfOwnerByIndex",
      "outputs": [
        {
          "internalType": "uint256",
          "name": "",
          "type": "uint256"
        }
      ],
      "stateMutability": "view",
      "type": "function",
      "constant": true
    },
    {
      "inputs": [
        {
          "internalType": "uint256",
          "name": "tokenId",
          "type": "uint256"
        }
      ],
      "name": "tokenURI",
      "outputs": [
        {
          "internalType": "string",
          "name": "",
          "type": "string"
        }
      ],
      "stateMutability": "view",
      "type": "function",
      "constant": true
    },
    {
      "inputs": [
        {
          "internalType": "address",
          "name": "",
          "type": "address"
        }
      ],
      "name": "tokens",
      "outputs": [
        {
          "internalType": "uint256",
          "name": "id",
          "type": "uint256"
        },
        {
          "internalType": "uint256",
          "name": "amount",
          "type": "uint256"
        },
        {
          "internalType": "uint256",
          "name": "rate",
          "type": "uint256"
        },
        {
          "internalType": "uint256",
          "name": "initDate",
          "type": "uint256"
        },
        {
          "internalType": "enum GBCDeFi.borrowNFTStatus",
          "name": "status",
          "type": "uint8"
        },
        {
          "internalType": "address",
          "name": "owner",
          "type": "address"
        }
      ],
      "stateMutability": "view",
      "type": "function",
      "constant": true
    },
    {
      "inputs": [],
      "name": "totalSupply",
      "outputs": [
        {
          "internalType": "uint256",
          "name": "",
          "type": "uint256"
        }
      ],
      "stateMutability": "view",
      "type": "function",
      "constant": true
    },
    {
      "inputs": [
        {
          "internalType": "address",
          "name": "from",
          "type": "address"
        },
        {
          "internalType": "address",
          "name": "to",
          "type": "address"
        },
        {
          "internalType": "uint256",
          "name": "tokenId",
          "type": "uint256"
        }
      ],
      "name": "transferFrom",
      "outputs": [],
      "stateMutability": "nonpayable",
      "type": "function"
    },
    {
      "inputs": [
        {
          "internalType": "address",
          "name": "_addborrower",
          "type": "address"
        },
        {
          "internalType": "uint256",
          "name": "_amount",
          "type": "uint256"
        }
      ],
      "name": "createTokenLoan",
      "outputs": [
        {
          "internalType": "uint256",
          "name": "",
          "type": "uint256"
        }
      ],
      "stateMutability": "nonpayable",
      "type": "function"
    },
    {
      "inputs": [
        {
          "internalType": "address",
          "name": "_addborrower",
          "type": "address"
        }
      ],
      "name": "getvalueInterestLoan",
      "outputs": [
        {
          "internalType": "uint256",
          "name": "",
          "type": "uint256"
        }
      ],
      "stateMutability": "view",
      "type": "function",
      "constant": true
    }
  ],
  "bytecode": "0x60806040523480156200001157600080fd5b506040518060400160405280600881526020017f47424320446546690000000000000000000000000000000000000000000000008152506040518060400160405280600781526020017f474243446546690000000000000000000000000000000000000000000000000081525081600090805190602001906200009692919062000165565b508060019080519060200190620000af92919062000165565b505050604051620000c090620001f6565b604051809103906000f080158015620000dd573d6000803e3d6000fd5b50600d60006101000a81548173ffffffffffffffffffffffffffffffffffffffff021916908373ffffffffffffffffffffffffffffffffffffffff16021790555033600a60006101000a81548173ffffffffffffffffffffffffffffffffffffffff021916908373ffffffffffffffffffffffffffffffffffffffff16021790555062000288565b828054620001739062000223565b90600052602060002090601f016020900481019282620001975760008555620001e3565b82601f10620001b257805160ff1916838001178555620001e3565b82800160010185558215620001e3579182015b82811115620001e2578251825591602001919060010190620001c5565b5b509050620001f2919062000204565b5090565b6103508062003df583390190565b5b808211156200021f57600081600090555060010162000205565b5090565b600060028204905060018216806200023c57607f821691505b6020821081141562000253576200025262000259565b5b50919050565b7f4e487b7100000000000000000000000000000000000000000000000000000000600052602260045260246000fd5b613b5d80620002986000396000f3fe608060405234801561001057600080fd5b506004361061012c5760003560e01c80634f6ccce7116100ad578063a22cb46511610071578063a22cb4651461037d578063b88d4fde14610399578063c87b56dd146103b5578063e4860339146103e5578063e985e9c51461041a5761012c565b80634f6ccce71461029f5780636352211e146102cf57806370a08231146102ff5780637f70c7541461032f57806395d89b411461035f5761012c565b80631f73b8e6116100f45780631f73b8e6146101e957806323b872dd146102195780632f745c591461023557806342842e0e14610265578063481c6a75146102815761012c565b806301ffc9a71461013157806306fdde0314610161578063081812fc1461017f578063095ea7b3146101af57806318160ddd146101cb575b600080fd5b61014b60048036038101906101469190612852565b61044a565b6040516101589190612d3f565b60405180910390f35b6101696104c4565b6040516101769190612d5a565b60405180910390f35b610199600480360381019061019491906128a4565b610556565b6040516101a69190612cd8565b60405180910390f35b6101c960048036038101906101c49190612816565b6105db565b005b6101d36106f3565b6040516101e0919061301c565b60405180910390f35b61020360048036038101906101fe91906126ab565b610700565b604051610210919061301c565b60405180910390f35b610233600480360381019061022e9190612710565b61092b565b005b61024f600480360381019061024a9190612816565b61098b565b60405161025c919061301c565b60405180910390f35b61027f600480360381019061027a9190612710565b610a30565b005b610289610a50565b6040516102969190612cd8565b60405180910390f35b6102b960048036038101906102b491906128a4565b610a76565b6040516102c6919061301c565b60405180910390f35b6102e960048036038101906102e491906128a4565b610b0d565b6040516102f69190612cd8565b60405180910390f35b610319600480360381019061031491906126ab565b610bbf565b604051610326919061301c565b60405180910390f35b61034960048036038101906103449190612816565b610c77565b604051610356919061301c565b60405180910390f35b610367611157565b6040516103749190612d5a565b60405180910390f35b610397600480360381019061039291906127da565b6111e9565b005b6103b360048036038101906103ae919061275f565b61136a565b005b6103cf60048036038101906103ca91906128a4565b6113cc565b6040516103dc9190612d5a565b60405180910390f35b6103ff60048036038101906103fa91906126ab565b611473565b60405161041196959493929190613037565b60405180910390f35b610434600480360381019061042f91906126d4565b6114dc565b6040516104419190612d3f565b60405180910390f35b60007f780e9d63000000000000000000000000000000000000000000000000000000007bffffffffffffffffffffffffffffffffffffffffffffffffffffffff1916827bffffffffffffffffffffffffffffffffffffffffffffffffffffffff191614806104bd57506104bc82611570565b5b9050919050565b6060600080546104d390613321565b80601f01602080910402602001604051908101604052809291908181526020018280546104ff90613321565b801561054c5780601f106105215761010080835404028352916020019161054c565b820191906000526020600020905b81548152906001019060200180831161052f57829003601f168201915b5050505050905090565b600061056182611652565b6105a0576040517f08c379a000000000000000000000000000000000000000000000000000000000815260040161059790612f1c565b60405180910390fd5b6004600083815260200190815260200160002060009054906101000a900473ffffffffffffffffffffffffffffffffffffffff169050919050565b60006105e682610b0d565b90508073ffffffffffffffffffffffffffffffffffffffff168373ffffffffffffffffffffffffffffffffffffffff161415610657576040517f08c379a000000000000000000000000000000000000000000000000000000000815260040161064e90612f9c565b60405180910390fd5b8073ffffffffffffffffffffffffffffffffffffffff166106766116be565b73ffffffffffffffffffffffffffffffffffffffff1614806106a557506106a48161069f6116be565b6114dc565b5b6106e4576040517f08c379a00000000000000000000000000000000000000000000000000000000081526004016106db90612e7c565b60405180910390fd5b6106ee83836116c6565b505050565b6000600880549050905090565b600080600c60008473ffffffffffffffffffffffffffffffffffffffff1673ffffffffffffffffffffffffffffffffffffffff168152602001908152602001600020600101541415610787576040517f08c379a000000000000000000000000000000000000000000000000000000000815260040161077e90612ffc565b60405180910390fd5b6000806018603c80600c60008873ffffffffffffffffffffffffffffffffffffffff1673ffffffffffffffffffffffffffffffffffffffff16815260200190815260200160002060030154426107dd9190613212565b6107e79190613187565b6107f19190613187565b6107fb9190613187565b11610807576001610879565b6018603c80600c60008773ffffffffffffffffffffffffffffffffffffffff1673ffffffffffffffffffffffffffffffffffffffff168152602001908152602001600020600301544261085a9190613212565b6108649190613187565b61086e9190613187565b6108789190613187565b5b9050612710600c60008573ffffffffffffffffffffffffffffffffffffffff1673ffffffffffffffffffffffffffffffffffffffff16815260200190815260200160002060020154600c60008673ffffffffffffffffffffffffffffffffffffffff1673ffffffffffffffffffffffffffffffffffffffff1681526020019081526020016000206001015461090e91906131b8565b6109189190613187565b8161092391906131b8565b915050919050565b61093c6109366116be565b8261177f565b61097b576040517f08c379a000000000000000000000000000000000000000000000000000000000815260040161097290612fbc565b60405180910390fd5b61098683838361185d565b505050565b600061099683610bbf565b82106109d7576040517f08c379a00000000000000000000000000000000000000000000000000000000081526004016109ce90612dbc565b60405180910390fd5b600660008473ffffffffffffffffffffffffffffffffffffffff1673ffffffffffffffffffffffffffffffffffffffff168152602001908152602001600020600083815260200190815260200160002054905092915050565b610a4b8383836040518060200160405280600081525061136a565b505050565b600a60009054906101000a900473ffffffffffffffffffffffffffffffffffffffff1681565b6000610a806106f3565b8210610ac1576040517f08c379a0000000000000000000000000000000000000000000000000000000008152600401610ab890612fdc565b60405180910390fd5b60088281548110610afb577f4e487b7100000000000000000000000000000000000000000000000000000000600052603260045260246000fd5b90600052602060002001549050919050565b6000806002600084815260200190815260200160002060009054906101000a900473ffffffffffffffffffffffffffffffffffffffff169050600073ffffffffffffffffffffffffffffffffffffffff168173ffffffffffffffffffffffffffffffffffffffff161415610bb6576040517f08c379a0000000000000000000000000000000000000000000000000000000008152600401610bad90612ebc565b60405180910390fd5b80915050919050565b60008073ffffffffffffffffffffffffffffffffffffffff168273ffffffffffffffffffffffffffffffffffffffff161415610c30576040517f08c379a0000000000000000000000000000000000000000000000000000000008152600401610c2790612e9c565b60405180910390fd5b600360008373ffffffffffffffffffffffffffffffffffffffff1673ffffffffffffffffffffffffffffffffffffffff168152602001908152602001600020549050919050565b6000600a60009054906101000a900473ffffffffffffffffffffffffffffffffffffffff1673ffffffffffffffffffffffffffffffffffffffff163373ffffffffffffffffffffffffffffffffffffffff1614610d09576040517f08c379a0000000000000000000000000000000000000000000000000000000008152600401610d0090612edc565b60405180910390fd5b600073ffffffffffffffffffffffffffffffffffffffff168373ffffffffffffffffffffffffffffffffffffffff1614158015610d735750600073ffffffffffffffffffffffffffffffffffffffff163373ffffffffffffffffffffffffffffffffffffffff1614155b610db2576040517f08c379a0000000000000000000000000000000000000000000000000000000008152600401610da990612f7c565b60405180910390fd5b60008211610df5576040517f08c379a0000000000000000000000000000000000000000000000000000000008152600401610dec90612d7c565b60405180910390fd5b6000600c60008573ffffffffffffffffffffffffffffffffffffffff1673ffffffffffffffffffffffffffffffffffffffff1681526020019081526020016000206001015414610e7a576040517f08c379a0000000000000000000000000000000000000000000000000000000008152600401610e7190612d9c565b60405180910390fd5b60006040518060c00160405280600b548152602001848152602001600d60009054906101000a900473ffffffffffffffffffffffffffffffffffffffff1673ffffffffffffffffffffffffffffffffffffffff1663679aefce6040518163ffffffff1660e01b815260040160206040518083038186803b158015610efd57600080fd5b505afa158015610f11573d6000803e3d6000fd5b505050506040513d601f19601f82011682018060405250810190610f3591906128cd565b815260200142815260200160006001811115610f7a577f4e487b7100000000000000000000000000000000000000000000000000000000600052602160045260246000fd5b81526020018573ffffffffffffffffffffffffffffffffffffffff16815250905080600c60008673ffffffffffffffffffffffffffffffffffffffff1673ffffffffffffffffffffffffffffffffffffffff1681526020019081526020016000206000820151816000015560208201518160010155604082015181600201556060820151816003015560808201518160040160006101000a81548160ff02191690836001811115611054577f4e487b7100000000000000000000000000000000000000000000000000000000600052602160045260246000fd5b021790555060a08201518160040160016101000a81548173ffffffffffffffffffffffffffffffffffffffff021916908373ffffffffffffffffffffffffffffffffffffffff1602179055509050506110af33600b54611ab9565b82600c60008673ffffffffffffffffffffffffffffffffffffffff1673ffffffffffffffffffffffffffffffffffffffff1681526020019081526020016000206001015414611127577f4e487b7100000000000000000000000000000000000000000000000000000000600052600160045260246000fd5b600b600081548092919061113a90613384565b91905055506001600b5461114e9190613212565b91505092915050565b60606001805461116690613321565b80601f016020809104026020016040519081016040528092919081815260200182805461119290613321565b80156111df5780601f106111b4576101008083540402835291602001916111df565b820191906000526020600020905b8154815290600101906020018083116111c257829003601f168201915b5050505050905090565b6111f16116be565b73ffffffffffffffffffffffffffffffffffffffff168273ffffffffffffffffffffffffffffffffffffffff16141561125f576040517f08c379a000000000000000000000000000000000000000000000000000000000815260040161125690612e3c565b60405180910390fd5b806005600061126c6116be565b73ffffffffffffffffffffffffffffffffffffffff1673ffffffffffffffffffffffffffffffffffffffff16815260200190815260200160002060008473ffffffffffffffffffffffffffffffffffffffff1673ffffffffffffffffffffffffffffffffffffffff16815260200190815260200160002060006101000a81548160ff0219169083151502179055508173ffffffffffffffffffffffffffffffffffffffff166113196116be565b73ffffffffffffffffffffffffffffffffffffffff167f17307eab39ab6107e8899845ad3d59bd9653f200f220920489ca2b5937696c318360405161135e9190612d3f565b60405180910390a35050565b61137b6113756116be565b8361177f565b6113ba576040517f08c379a00000000000000000000000000000000000000000000000000000000081526004016113b190612fbc565b60405180910390fd5b6113c684848484611ad7565b50505050565b60606113d782611652565b611416576040517f08c379a000000000000000000000000000000000000000000000000000000000815260040161140d90612f5c565b60405180910390fd5b6000611420611b33565b90506000815111611440576040518060200160405280600081525061146b565b8061144a84611b4a565b60405160200161145b929190612cb4565b6040516020818303038152906040525b915050919050565b600c6020528060005260406000206000915090508060000154908060010154908060020154908060030154908060040160009054906101000a900460ff16908060040160019054906101000a900473ffffffffffffffffffffffffffffffffffffffff16905086565b6000600560008473ffffffffffffffffffffffffffffffffffffffff1673ffffffffffffffffffffffffffffffffffffffff16815260200190815260200160002060008373ffffffffffffffffffffffffffffffffffffffff1673ffffffffffffffffffffffffffffffffffffffff16815260200190815260200160002060009054906101000a900460ff16905092915050565b60007f80ac58cd000000000000000000000000000000000000000000000000000000007bffffffffffffffffffffffffffffffffffffffffffffffffffffffff1916827bffffffffffffffffffffffffffffffffffffffffffffffffffffffff1916148061163b57507f5b5e139f000000000000000000000000000000000000000000000000000000007bffffffffffffffffffffffffffffffffffffffffffffffffffffffff1916827bffffffffffffffffffffffffffffffffffffffffffffffffffffffff1916145b8061164b575061164a82611cf7565b5b9050919050565b60008073ffffffffffffffffffffffffffffffffffffffff166002600084815260200190815260200160002060009054906101000a900473ffffffffffffffffffffffffffffffffffffffff1673ffffffffffffffffffffffffffffffffffffffff1614159050919050565b600033905090565b816004600083815260200190815260200160002060006101000a81548173ffffffffffffffffffffffffffffffffffffffff021916908373ffffffffffffffffffffffffffffffffffffffff160217905550808273ffffffffffffffffffffffffffffffffffffffff1661173983610b0d565b73ffffffffffffffffffffffffffffffffffffffff167f8c5be1e5ebec7d5bd14f71427d1e84f3dd0314c0f7b2291e5b200ac8c7c3b92560405160405180910390a45050565b600061178a82611652565b6117c9576040517f08c379a00000000000000000000000000000000000000000000000000000000081526004016117c090612e5c565b60405180910390fd5b60006117d483610b0d565b90508073ffffffffffffffffffffffffffffffffffffffff168473ffffffffffffffffffffffffffffffffffffffff16148061184357508373ffffffffffffffffffffffffffffffffffffffff1661182b84610556565b73ffffffffffffffffffffffffffffffffffffffff16145b80611854575061185381856114dc565b5b91505092915050565b8273ffffffffffffffffffffffffffffffffffffffff1661187d82610b0d565b73ffffffffffffffffffffffffffffffffffffffff16146118d3576040517f08c379a00000000000000000000000000000000000000000000000000000000081526004016118ca90612f3c565b60405180910390fd5b600073ffffffffffffffffffffffffffffffffffffffff168273ffffffffffffffffffffffffffffffffffffffff161415611943576040517f08c379a000000000000000000000000000000000000000000000000000000000815260040161193a90612e1c565b60405180910390fd5b61194e838383611d61565b6119596000826116c6565b6001600360008573ffffffffffffffffffffffffffffffffffffffff1673ffffffffffffffffffffffffffffffffffffffff16815260200190815260200160002060008282546119a99190613212565b925050819055506001600360008473ffffffffffffffffffffffffffffffffffffffff1673ffffffffffffffffffffffffffffffffffffffff1681526020019081526020016000206000828254611a009190613131565b92505081905550816002600083815260200190815260200160002060006101000a81548173ffffffffffffffffffffffffffffffffffffffff021916908373ffffffffffffffffffffffffffffffffffffffff160217905550808273ffffffffffffffffffffffffffffffffffffffff168473ffffffffffffffffffffffffffffffffffffffff167fddf252ad1be2c89b69c2b068fc378daa952ba7f163c4a11628f55a4df523b3ef60405160405180910390a4505050565b611ad3828260405180602001604052806000815250611e75565b5050565b611ae284848461185d565b611aee84848484611ed0565b611b2d576040517f08c379a0000000000000000000000000000000000000000000000000000000008152600401611b2490612ddc565b60405180910390fd5b50505050565b606060405180602001604052806000815250905090565b60606000821415611b92576040518060400160405280600181526020017f30000000000000000000000000000000000000000000000000000000000000008152509050611cf2565b600082905060005b60008214611bc4578080611bad90613384565b915050600a82611bbd9190613187565b9150611b9a565b60008167ffffffffffffffff811115611c06577f4e487b7100000000000000000000000000000000000000000000000000000000600052604160045260246000fd5b6040519080825280601f01601f191660200182016040528015611c385781602001600182028036833780820191505090505b5090505b60008514611ceb57600182611c519190613212565b9150600a85611c6091906133cd565b6030611c6c9190613131565b60f81b818381518110611ca8577f4e487b7100000000000000000000000000000000000000000000000000000000600052603260045260246000fd5b60200101907effffffffffffffffffffffffffffffffffffffffffffffffffffffffffffff1916908160001a905350600a85611ce49190613187565b9450611c3c565b8093505050505b919050565b60007f01ffc9a7000000000000000000000000000000000000000000000000000000007bffffffffffffffffffffffffffffffffffffffffffffffffffffffff1916827bffffffffffffffffffffffffffffffffffffffffffffffffffffffff1916149050919050565b611d6c838383612067565b600073ffffffffffffffffffffffffffffffffffffffff168373ffffffffffffffffffffffffffffffffffffffff161415611daf57611daa8161206c565b611dee565b8173ffffffffffffffffffffffffffffffffffffffff168373ffffffffffffffffffffffffffffffffffffffff1614611ded57611dec83826120b5565b5b5b600073ffffffffffffffffffffffffffffffffffffffff168273ffffffffffffffffffffffffffffffffffffffff161415611e3157611e2c81612222565b611e70565b8273ffffffffffffffffffffffffffffffffffffffff168273ffffffffffffffffffffffffffffffffffffffff1614611e6f57611e6e8282612365565b5b5b505050565b611e7f83836123e4565b611e8c6000848484611ed0565b611ecb576040517f08c379a0000000000000000000000000000000000000000000000000000000008152600401611ec290612ddc565b60405180910390fd5b505050565b6000611ef18473ffffffffffffffffffffffffffffffffffffffff166125b2565b1561205a578373ffffffffffffffffffffffffffffffffffffffff1663150b7a02611f1a6116be565b8786866040518563ffffffff1660e01b8152600401611f3c9493929190612cf3565b602060405180830381600087803b158015611f5657600080fd5b505af1925050508015611f8757506040513d601f19601f82011682018060405250810190611f84919061287b565b60015b61200a573d8060008114611fb7576040519150601f19603f3d011682016040523d82523d6000602084013e611fbc565b606091505b50600081511415612002576040517f08c379a0000000000000000000000000000000000000000000000000000000008152600401611ff990612ddc565b60405180910390fd5b805181602001fd5b63150b7a0260e01b7bffffffffffffffffffffffffffffffffffffffffffffffffffffffff1916817bffffffffffffffffffffffffffffffffffffffffffffffffffffffff19161491505061205f565b600190505b949350505050565b505050565b6008805490506009600083815260200190815260200160002081905550600881908060018154018082558091505060019003906000526020600020016000909190919091505550565b600060016120c284610bbf565b6120cc9190613212565b90506000600760008481526020019081526020016000205490508181146121b1576000600660008673ffffffffffffffffffffffffffffffffffffffff1673ffffffffffffffffffffffffffffffffffffffff168152602001908152602001600020600084815260200190815260200160002054905080600660008773ffffffffffffffffffffffffffffffffffffffff1673ffffffffffffffffffffffffffffffffffffffff168152602001908152602001600020600084815260200190815260200160002081905550816007600083815260200190815260200160002081905550505b6007600084815260200190815260200160002060009055600660008573ffffffffffffffffffffffffffffffffffffffff1673ffffffffffffffffffffffffffffffffffffffff16815260200190815260200160002060008381526020019081526020016000206000905550505050565b600060016008805490506122369190613212565b905060006009600084815260200190815260200160002054905060006008838154811061228c577f4e487b7100000000000000000000000000000000000000000000000000000000600052603260045260246000fd5b9060005260206000200154905080600883815481106122d4577f4e487b7100000000000000000000000000000000000000000000000000000000600052603260045260246000fd5b906000526020600020018190555081600960008381526020019081526020016000208190555060096000858152602001908152602001600020600090556008805480612349577f4e487b7100000000000000000000000000000000000000000000000000000000600052603160045260246000fd5b6001900381819060005260206000200160009055905550505050565b600061237083610bbf565b905081600660008573ffffffffffffffffffffffffffffffffffffffff1673ffffffffffffffffffffffffffffffffffffffff168152602001908152602001600020600083815260200190815260200160002081905550806007600084815260200190815260200160002081905550505050565b600073ffffffffffffffffffffffffffffffffffffffff168273ffffffffffffffffffffffffffffffffffffffff161415612454576040517f08c379a000000000000000000000000000000000000000000000000000000000815260040161244b90612efc565b60405180910390fd5b61245d81611652565b1561249d576040517f08c379a000000000000000000000000000000000000000000000000000000000815260040161249490612dfc565b60405180910390fd5b6124a960008383611d61565b6001600360008473ffffffffffffffffffffffffffffffffffffffff1673ffffffffffffffffffffffffffffffffffffffff16815260200190815260200160002060008282546124f99190613131565b92505081905550816002600083815260200190815260200160002060006101000a81548173ffffffffffffffffffffffffffffffffffffffff021916908373ffffffffffffffffffffffffffffffffffffffff160217905550808273ffffffffffffffffffffffffffffffffffffffff16600073ffffffffffffffffffffffffffffffffffffffff167fddf252ad1be2c89b69c2b068fc378daa952ba7f163c4a11628f55a4df523b3ef60405160405180910390a45050565b600080823b905060008111915050919050565b60006125d86125d3846130bd565b613098565b9050828152602081018484840111156125f057600080fd5b6125fb8482856132df565b509392505050565b60008135905061261281613acb565b92915050565b60008135905061262781613ae2565b92915050565b60008135905061263c81613af9565b92915050565b60008151905061265181613af9565b92915050565b600082601f83011261266857600080fd5b81356126788482602086016125c5565b91505092915050565b60008135905061269081613b10565b92915050565b6000815190506126a581613b10565b92915050565b6000602082840312156126bd57600080fd5b60006126cb84828501612603565b91505092915050565b600080604083850312156126e757600080fd5b60006126f585828601612603565b925050602061270685828601612603565b9150509250929050565b60008060006060848603121561272557600080fd5b600061273386828701612603565b935050602061274486828701612603565b925050604061275586828701612681565b9150509250925092565b6000806000806080858703121561277557600080fd5b600061278387828801612603565b945050602061279487828801612603565b93505060406127a587828801612681565b925050606085013567ffffffffffffffff8111156127c257600080fd5b6127ce87828801612657565b91505092959194509250565b600080604083850312156127ed57600080fd5b60006127fb85828601612603565b925050602061280c85828601612618565b9150509250929050565b6000806040838503121561282957600080fd5b600061283785828601612603565b925050602061284885828601612681565b9150509250929050565b60006020828403121561286457600080fd5b60006128728482850161262d565b91505092915050565b60006020828403121561288d57600080fd5b600061289b84828501612642565b91505092915050565b6000602082840312156128b657600080fd5b60006128c484828501612681565b91505092915050565b6000602082840312156128df57600080fd5b60006128ed84828501612696565b91505092915050565b6128ff81613246565b82525050565b61290e81613258565b82525050565b600061291f826130ee565b6129298185613104565b93506129398185602086016132ee565b612942816134e9565b840191505092915050565b612956816132cd565b82525050565b6000612967826130f9565b6129718185613115565b93506129818185602086016132ee565b61298a816134e9565b840191505092915050565b60006129a0826130f9565b6129aa8185613126565b93506129ba8185602086016132ee565b80840191505092915050565b60006129d3601c83613115565b91506129de826134fa565b602082019050919050565b60006129f6602983613115565b9150612a0182613523565b604082019050919050565b6000612a19602b83613115565b9150612a2482613572565b604082019050919050565b6000612a3c603283613115565b9150612a47826135c1565b604082019050919050565b6000612a5f601c83613115565b9150612a6a82613610565b602082019050919050565b6000612a82602483613115565b9150612a8d82613639565b604082019050919050565b6000612aa5601983613115565b9150612ab082613688565b602082019050919050565b6000612ac8602c83613115565b9150612ad3826136b1565b604082019050919050565b6000612aeb603883613115565b9150612af682613700565b604082019050919050565b6000612b0e602a83613115565b9150612b198261374f565b604082019050919050565b6000612b31602983613115565b9150612b3c8261379e565b604082019050919050565b6000612b54602183613115565b9150612b5f826137ed565b604082019050919050565b6000612b77602083613115565b9150612b828261383c565b602082019050919050565b6000612b9a602c83613115565b9150612ba582613865565b604082019050919050565b6000612bbd602983613115565b9150612bc8826138b4565b604082019050919050565b6000612be0602f83613115565b9150612beb82613903565b604082019050919050565b6000612c03601f83613115565b9150612c0e82613952565b602082019050919050565b6000612c26602183613115565b9150612c318261397b565b604082019050919050565b6000612c49603183613115565b9150612c54826139ca565b604082019050919050565b6000612c6c602c83613115565b9150612c7782613a19565b604082019050919050565b6000612c8f602b83613115565b9150612c9a82613a68565b604082019050919050565b612cae816132c3565b82525050565b6000612cc08285612995565b9150612ccc8284612995565b91508190509392505050565b6000602082019050612ced60008301846128f6565b92915050565b6000608082019050612d0860008301876128f6565b612d1560208301866128f6565b612d226040830185612ca5565b8181036060830152612d348184612914565b905095945050505050565b6000602082019050612d546000830184612905565b92915050565b60006020820190508181036000830152612d74818461295c565b905092915050565b60006020820190508181036000830152612d95816129c6565b9050919050565b60006020820190508181036000830152612db5816129e9565b9050919050565b60006020820190508181036000830152612dd581612a0c565b9050919050565b60006020820190508181036000830152612df581612a2f565b9050919050565b60006020820190508181036000830152612e1581612a52565b9050919050565b60006020820190508181036000830152612e3581612a75565b9050919050565b60006020820190508181036000830152612e5581612a98565b9050919050565b60006020820190508181036000830152612e7581612abb565b9050919050565b60006020820190508181036000830152612e9581612ade565b9050919050565b60006020820190508181036000830152612eb581612b01565b9050919050565b60006020820190508181036000830152612ed581612b24565b9050919050565b60006020820190508181036000830152612ef581612b47565b9050919050565b60006020820190508181036000830152612f1581612b6a565b9050919050565b60006020820190508181036000830152612f3581612b8d565b9050919050565b60006020820190508181036000830152612f5581612bb0565b9050919050565b60006020820190508181036000830152612f7581612bd3565b9050919050565b60006020820190508181036000830152612f9581612bf6565b9050919050565b60006020820190508181036000830152612fb581612c19565b9050919050565b60006020820190508181036000830152612fd581612c3c565b9050919050565b60006020820190508181036000830152612ff581612c5f565b9050919050565b6000602082019050818103600083015261301581612c82565b9050919050565b60006020820190506130316000830184612ca5565b92915050565b600060c08201905061304c6000830189612ca5565b6130596020830188612ca5565b6130666040830187612ca5565b6130736060830186612ca5565b613080608083018561294d565b61308d60a08301846128f6565b979650505050505050565b60006130a26130b3565b90506130ae8282613353565b919050565b6000604051905090565b600067ffffffffffffffff8211156130d8576130d76134ba565b5b6130e1826134e9565b9050602081019050919050565b600081519050919050565b600081519050919050565b600082825260208201905092915050565b600082825260208201905092915050565b600081905092915050565b600061313c826132c3565b9150613147836132c3565b9250827fffffffffffffffffffffffffffffffffffffffffffffffffffffffffffffffff0382111561317c5761317b6133fe565b5b828201905092915050565b6000613192826132c3565b915061319d836132c3565b9250826131ad576131ac61342d565b5b828204905092915050565b60006131c3826132c3565b91506131ce836132c3565b9250817fffffffffffffffffffffffffffffffffffffffffffffffffffffffffffffffff0483118215151615613207576132066133fe565b5b828202905092915050565b600061321d826132c3565b9150613228836132c3565b92508282101561323b5761323a6133fe565b5b828203905092915050565b6000613251826132a3565b9050919050565b60008115159050919050565b60007fffffffff0000000000000000000000000000000000000000000000000000000082169050919050565b600081905061329e82613ab7565b919050565b600073ffffffffffffffffffffffffffffffffffffffff82169050919050565b6000819050919050565b60006132d882613290565b9050919050565b82818337600083830152505050565b60005b8381101561330c5780820151818401526020810190506132f1565b8381111561331b576000848401525b50505050565b6000600282049050600182168061333957607f821691505b6020821081141561334d5761334c61348b565b5b50919050565b61335c826134e9565b810181811067ffffffffffffffff8211171561337b5761337a6134ba565b5b80604052505050565b600061338f826132c3565b91507fffffffffffffffffffffffffffffffffffffffffffffffffffffffffffffffff8214156133c2576133c16133fe565b5b600182019050919050565b60006133d8826132c3565b91506133e3836132c3565b9250826133f3576133f261342d565b5b828206905092915050565b7f4e487b7100000000000000000000000000000000000000000000000000000000600052601160045260246000fd5b7f4e487b7100000000000000000000000000000000000000000000000000000000600052601260045260246000fd5b7f4e487b7100000000000000000000000000000000000000000000000000000000600052602160045260246000fd5b7f4e487b7100000000000000000000000000000000000000000000000000000000600052602260045260246000fd5b7f4e487b7100000000000000000000000000000000000000000000000000000000600052604160045260246000fd5b6000601f19601f8301169050919050565b7f47424320446546693a2063616e6e6f7420626f72726f77207a65726f00000000600082015250565b7f47424320446546693a2054686520626f72726f77657220616c7265616479206860008201527f61732061206c6f616e0000000000000000000000000000000000000000000000602082015250565b7f455243373231456e756d657261626c653a206f776e657220696e646578206f7560008201527f74206f6620626f756e6473000000000000000000000000000000000000000000602082015250565b7f4552433732313a207472616e7366657220746f206e6f6e20455243373231526560008201527f63656976657220696d706c656d656e7465720000000000000000000000000000602082015250565b7f4552433732313a20746f6b656e20616c7265616479206d696e74656400000000600082015250565b7f4552433732313a207472616e7366657220746f20746865207a65726f2061646460008201527f7265737300000000000000000000000000000000000000000000000000000000602082015250565b7f4552433732313a20617070726f766520746f2063616c6c657200000000000000600082015250565b7f4552433732313a206f70657261746f7220717565727920666f72206e6f6e657860008201527f697374656e7420746f6b656e0000000000000000000000000000000000000000602082015250565b7f4552433732313a20617070726f76652063616c6c6572206973206e6f74206f7760008201527f6e6572206e6f7220617070726f76656420666f7220616c6c0000000000000000602082015250565b7f4552433732313a2062616c616e636520717565727920666f7220746865207a6560008201527f726f206164647265737300000000000000000000000000000000000000000000602082015250565b7f4552433732313a206f776e657220717565727920666f72206e6f6e657869737460008201527f656e7420746f6b656e0000000000000000000000000000000000000000000000602082015250565b7f47424320446546693a20596f7520617265206e6f7420746865206d616e61676560008201527f7200000000000000000000000000000000000000000000000000000000000000602082015250565b7f4552433732313a206d696e7420746f20746865207a65726f2061646472657373600082015250565b7f4552433732313a20617070726f76656420717565727920666f72206e6f6e657860008201527f697374656e7420746f6b656e0000000000000000000000000000000000000000602082015250565b7f4552433732313a207472616e73666572206f6620746f6b656e2074686174206960008201527f73206e6f74206f776e0000000000000000000000000000000000000000000000602082015250565b7f4552433732314d657461646174613a2055524920717565727920666f72206e6f60008201527f6e6578697374656e7420746f6b656e0000000000000000000000000000000000602082015250565b7f47424320446546693a206465746563746564207a65726f206164647265737300600082015250565b7f4552433732313a20617070726f76616c20746f2063757272656e74206f776e6560008201527f7200000000000000000000000000000000000000000000000000000000000000602082015250565b7f4552433732313a207472616e736665722063616c6c6572206973206e6f74206f60008201527f776e6572206e6f7220617070726f766564000000000000000000000000000000602082015250565b7f455243373231456e756d657261626c653a20676c6f62616c20696e646578206f60008201527f7574206f6620626f756e64730000000000000000000000000000000000000000602082015250565b7f47424320446546693a2054686520626f72726f77657220646f6573206e6f742060008201527f686176652061206c6f616e000000000000000000000000000000000000000000602082015250565b60028110613ac857613ac761345c565b5b50565b613ad481613246565b8114613adf57600080fd5b50565b613aeb81613258565b8114613af657600080fd5b50565b613b0281613264565b8114613b0d57600080fd5b50565b613b19816132c3565b8114613b2457600080fd5b5056fea2646970667358221220cbba5477ddec82dda7011b92751aa49a323c484690a5ac17ea99802b1c28b82664736f6c63430008030033608060405234801561001057600080fd5b506005600181905550610328806100286000396000f3fe608060405234801561001057600080fd5b50600436106100365760003560e01c806334fcf4371461003b578063679aefce14610057575b600080fd5b6100556004803603810190610050919061016f565b610075565b005b61005f610150565b60405161006c919061022d565b60405180910390f35b60008054906101000a900473ffffffffffffffffffffffffffffffffffffffff1673ffffffffffffffffffffffffffffffffffffffff163373ffffffffffffffffffffffffffffffffffffffff1614610103576040517f08c379a00000000000000000000000000000000000000000000000000000000081526004016100fa9061020d565b60405180910390fd5b60008111610146576040517f08c379a000000000000000000000000000000000000000000000000000000000815260040161013d906101ed565b60405180910390fd5b8060018190555050565b6000600154905090565b600081359050610169816102db565b92915050565b60006020828403121561018157600080fd5b600061018f8482850161015a565b91505092915050565b60006101a5601f83610248565b91506101b082610263565b602082019050919050565b60006101c8602183610248565b91506101d38261028c565b604082019050919050565b6101e781610259565b82525050565b6000602082019050818103600083015261020681610198565b9050919050565b60006020820190508181036000830152610226816101bb565b9050919050565b600060208201905061024260008301846101de565b92915050565b600082825260208201905092915050565b6000819050919050565b7f47424320446546693a206d757374206265206d6f726520746865207a65726f00600082015250565b7f47424320446546693a20596f7520617265206e6f7420746865206d616e61676560008201527f7200000000000000000000000000000000000000000000000000000000000000602082015250565b6102e481610259565b81146102ef57600080fd5b5056fea2646970667358221220e3df79351bfa05dd2ca5ea12063578c3f566a1d0bd0de2d201216f958cafb10b64736f6c63430008030033",
  "immutableReferences": {},
  "source": "// SPDX-License-Identifier: MIT\r\npragma solidity ^0.8.0;\r\n\r\n//import \"https://github.com/OpenZeppelin/openzeppelin-contracts/blob/master/contracts/token/ERC721/ERC721.sol\";\r\n//import \"https://github.com/OpenZeppelin/openzeppelin-contracts/blob/master/contracts/token/ERC721/extensions/ERC721Enumerable.sol\";\r\nimport \"@openzeppelin/contracts/token/ERC721/ERC721.sol\";\r\nimport \"@openzeppelin/contracts/token/ERC721/extensions/ERC721Enumerable.sol\";\r\nimport \"./GBCDeFiOracleRate.sol\";\r\n\r\ncontract GBCDeFi is ERC721Enumerable {\r\n    enum borrowNFTStatus {BORROWED, PAYED}\r\n    address public manager;\r\n    uint256 private _tokenIndexCursor;\r\n\r\n    struct borrowNFT {\r\n        uint256 id;\r\n        uint256 amount;\r\n        uint256 rate;\r\n        uint256 initDate;\r\n        borrowNFTStatus status;\r\n        address owner;\r\n    }\r\n\r\n    mapping(address => borrowNFT) public tokens;\r\n    GBCDeFiOracleRate valueOracle;\r\n\r\n    constructor() public ERC721(\"GBC DeFi\", \"GBCDeFi\") {\r\n        valueOracle = new GBCDeFiOracleRate();\r\n        manager = msg.sender;\r\n    }\r\n\r\n    function createTokenLoan(address _addborrower, uint256 _amount)\r\n        public\r\n        onlyManager\r\n        returns (uint256)\r\n    {\r\n        // Checks:\r\n        require(\r\n            _addborrower != address(0) && msg.sender != address(0),\r\n            \"GBC DeFi: detected zero address\"\r\n        );\r\n        require(_amount > 0, \"GBC DeFi: cannot borrow zero\");\r\n        require(\r\n            tokens[_addborrower].amount == 0,\r\n            \"GBC DeFi: The borrower already has a loan\"\r\n        );\r\n\r\n        //Create token loan\r\n        borrowNFT memory newborrowNFT =\r\n            borrowNFT({\r\n                id: _tokenIndexCursor,\r\n                amount: _amount,\r\n                rate: valueOracle.getRate(),\r\n                initDate: block.timestamp,\r\n                status: borrowNFTStatus.BORROWED,\r\n                owner: _addborrower\r\n            });\r\n        tokens[_addborrower] = newborrowNFT;\r\n        _safeMint(msg.sender, _tokenIndexCursor);\r\n        assert(tokens[_addborrower].amount == _amount);\r\n        _tokenIndexCursor++;\r\n        return _tokenIndexCursor - 1;\r\n    }\r\n\r\n    function getvalueInterestLoan(address _addborrower)\r\n        public\r\n        view\r\n        returns (uint256)\r\n    {\r\n        //returns (uint){\r\n        require(\r\n            tokens[_addborrower].amount != 0,\r\n            \"GBC DeFi: The borrower does not have a loan\"\r\n        );\r\n        //valueRate = tokens[_addborrower].rate;\r\n        uint256 daysLoan =\r\n            ((((block.timestamp - tokens[_addborrower].initDate) / 60) / 60) /\r\n                24) > 0\r\n                ? ((((block.timestamp - tokens[_addborrower].initDate) / 60) /\r\n                    60) / 24)\r\n                : 1;\r\n        return\r\n            (daysLoan) *\r\n            ((tokens[_addborrower].amount * tokens[_addborrower].rate) / 10000);\r\n    }\r\n\r\n    modifier onlyManager() {\r\n        require(msg.sender == manager, \"GBC DeFi: You are not the manager\");\r\n        _;\r\n    }\r\n}\r\n//0xAb8483F64d9C6d1EcF9b849Ae677dD3315835cb2\r\n//0x4B20993Bc481177ec7E8f571ceCaE8A9e22C02db\r\n",
  "sourcePath": "C:/AdvanceSC/Assignment/contracts/GBCDeFi.sol",
  "compiler": {
    "name": "solc",
    "version": "0.8.3+commit.8d00100c.Emscripten.clang"
  },
  "schemaVersion": "3.3.4",
  "updatedAt": "2021-04-02T11:48:43.273Z",
  "networkType": "ethereum",
  "devdoc": {
    "kind": "dev",
    "methods": {
      "approve(address,uint256)": {
        "details": "See {IERC721-approve}."
      },
      "balanceOf(address)": {
        "details": "See {IERC721-balanceOf}."
      },
      "getApproved(uint256)": {
        "details": "See {IERC721-getApproved}."
      },
      "isApprovedForAll(address,address)": {
        "details": "See {IERC721-isApprovedForAll}."
      },
      "name()": {
        "details": "See {IERC721Metadata-name}."
      },
      "ownerOf(uint256)": {
        "details": "See {IERC721-ownerOf}."
      },
      "safeTransferFrom(address,address,uint256)": {
        "details": "See {IERC721-safeTransferFrom}."
      },
      "safeTransferFrom(address,address,uint256,bytes)": {
        "details": "See {IERC721-safeTransferFrom}."
      },
      "setApprovalForAll(address,bool)": {
        "details": "See {IERC721-setApprovalForAll}."
      },
      "supportsInterface(bytes4)": {
        "details": "See {IERC165-supportsInterface}."
      },
      "symbol()": {
        "details": "See {IERC721Metadata-symbol}."
      },
      "tokenByIndex(uint256)": {
        "details": "See {IERC721Enumerable-tokenByIndex}."
      },
      "tokenOfOwnerByIndex(address,uint256)": {
        "details": "See {IERC721Enumerable-tokenOfOwnerByIndex}."
      },
      "tokenURI(uint256)": {
        "details": "See {IERC721Metadata-tokenURI}."
      },
      "totalSupply()": {
        "details": "See {IERC721Enumerable-totalSupply}."
      },
      "transferFrom(address,address,uint256)": {
        "details": "See {IERC721-transferFrom}."
      }
    },
    "version": 1
  },
  "userdoc": {
    "kind": "user",
    "methods": {},
    "version": 1
  }
}