{
  "contractName": "GBCDeFi",
  "abi": [
    {
      "inputs": [],
      "stateMutability": "nonpayable",
      "type": "constructor"
    },
    {
      "anonymous": false,
      "inputs": [
        {
          "indexed": true,
          "internalType": "address",
          "name": "owner",
          "type": "address"
        },
        {
          "indexed": true,
          "internalType": "address",
          "name": "approved",
          "type": "address"
        },
        {
          "indexed": true,
          "internalType": "uint256",
          "name": "tokenId",
          "type": "uint256"
        }
      ],
      "name": "Approval",
      "type": "event"
    },
    {
      "anonymous": false,
      "inputs": [
        {
          "indexed": true,
          "internalType": "address",
          "name": "owner",
          "type": "address"
        },
        {
          "indexed": true,
          "internalType": "address",
          "name": "operator",
          "type": "address"
        },
        {
          "indexed": false,
          "internalType": "bool",
          "name": "approved",
          "type": "bool"
        }
      ],
      "name": "ApprovalForAll",
      "type": "event"
    },
    {
      "anonymous": false,
      "inputs": [
        {
          "indexed": true,
          "internalType": "address",
          "name": "from",
          "type": "address"
        },
        {
          "indexed": true,
          "internalType": "address",
          "name": "to",
          "type": "address"
        },
        {
          "indexed": true,
          "internalType": "uint256",
          "name": "tokenId",
          "type": "uint256"
        }
      ],
      "name": "Transfer",
      "type": "event"
    },
    {
      "inputs": [
        {
          "internalType": "address",
          "name": "to",
          "type": "address"
        },
        {
          "internalType": "uint256",
          "name": "tokenId",
          "type": "uint256"
        }
      ],
      "name": "approve",
      "outputs": [],
      "stateMutability": "nonpayable",
      "type": "function"
    },
    {
      "inputs": [
        {
          "internalType": "address",
          "name": "owner",
          "type": "address"
        }
      ],
      "name": "balanceOf",
      "outputs": [
        {
          "internalType": "uint256",
          "name": "",
          "type": "uint256"
        }
      ],
      "stateMutability": "view",
      "type": "function",
      "constant": true
    },
    {
      "inputs": [
        {
          "internalType": "uint256",
          "name": "tokenId",
          "type": "uint256"
        }
      ],
      "name": "getApproved",
      "outputs": [
        {
          "internalType": "address",
          "name": "",
          "type": "address"
        }
      ],
      "stateMutability": "view",
      "type": "function",
      "constant": true
    },
    {
      "inputs": [
        {
          "internalType": "address",
          "name": "owner",
          "type": "address"
        },
        {
          "internalType": "address",
          "name": "operator",
          "type": "address"
        }
      ],
      "name": "isApprovedForAll",
      "outputs": [
        {
          "internalType": "bool",
          "name": "",
          "type": "bool"
        }
      ],
      "stateMutability": "view",
      "type": "function",
      "constant": true
    },
    {
      "inputs": [],
      "name": "manager",
      "outputs": [
        {
          "internalType": "address",
          "name": "",
          "type": "address"
        }
      ],
      "stateMutability": "view",
      "type": "function",
      "constant": true
    },
    {
      "inputs": [],
      "name": "name",
      "outputs": [
        {
          "internalType": "string",
          "name": "",
          "type": "string"
        }
      ],
      "stateMutability": "view",
      "type": "function",
      "constant": true
    },
    {
      "inputs": [
        {
          "internalType": "uint256",
          "name": "tokenId",
          "type": "uint256"
        }
      ],
      "name": "ownerOf",
      "outputs": [
        {
          "internalType": "address",
          "name": "",
          "type": "address"
        }
      ],
      "stateMutability": "view",
      "type": "function",
      "constant": true
    },
    {
      "inputs": [
        {
          "internalType": "address",
          "name": "from",
          "type": "address"
        },
        {
          "internalType": "address",
          "name": "to",
          "type": "address"
        },
        {
          "internalType": "uint256",
          "name": "tokenId",
          "type": "uint256"
        }
      ],
      "name": "safeTransferFrom",
      "outputs": [],
      "stateMutability": "nonpayable",
      "type": "function"
    },
    {
      "inputs": [
        {
          "internalType": "address",
          "name": "from",
          "type": "address"
        },
        {
          "internalType": "address",
          "name": "to",
          "type": "address"
        },
        {
          "internalType": "uint256",
          "name": "tokenId",
          "type": "uint256"
        },
        {
          "internalType": "bytes",
          "name": "_data",
          "type": "bytes"
        }
      ],
      "name": "safeTransferFrom",
      "outputs": [],
      "stateMutability": "nonpayable",
      "type": "function"
    },
    {
      "inputs": [
        {
          "internalType": "address",
          "name": "operator",
          "type": "address"
        },
        {
          "internalType": "bool",
          "name": "approved",
          "type": "bool"
        }
      ],
      "name": "setApprovalForAll",
      "outputs": [],
      "stateMutability": "nonpayable",
      "type": "function"
    },
    {
      "inputs": [
        {
          "internalType": "bytes4",
          "name": "interfaceId",
          "type": "bytes4"
        }
      ],
      "name": "supportsInterface",
      "outputs": [
        {
          "internalType": "bool",
          "name": "",
          "type": "bool"
        }
      ],
      "stateMutability": "view",
      "type": "function",
      "constant": true
    },
    {
      "inputs": [],
      "name": "symbol",
      "outputs": [
        {
          "internalType": "string",
          "name": "",
          "type": "string"
        }
      ],
      "stateMutability": "view",
      "type": "function",
      "constant": true
    },
    {
      "inputs": [
        {
          "internalType": "uint256",
          "name": "index",
          "type": "uint256"
        }
      ],
      "name": "tokenByIndex",
      "outputs": [
        {
          "internalType": "uint256",
          "name": "",
          "type": "uint256"
        }
      ],
      "stateMutability": "view",
      "type": "function",
      "constant": true
    },
    {
      "inputs": [
        {
          "internalType": "address",
          "name": "owner",
          "type": "address"
        },
        {
          "internalType": "uint256",
          "name": "index",
          "type": "uint256"
        }
      ],
      "name": "tokenOfOwnerByIndex",
      "outputs": [
        {
          "internalType": "uint256",
          "name": "",
          "type": "uint256"
        }
      ],
      "stateMutability": "view",
      "type": "function",
      "constant": true
    },
    {
      "inputs": [
        {
          "internalType": "uint256",
          "name": "tokenId",
          "type": "uint256"
        }
      ],
      "name": "tokenURI",
      "outputs": [
        {
          "internalType": "string",
          "name": "",
          "type": "string"
        }
      ],
      "stateMutability": "view",
      "type": "function",
      "constant": true
    },
    {
      "inputs": [
        {
          "internalType": "address",
          "name": "",
          "type": "address"
        }
      ],
      "name": "tokens",
      "outputs": [
        {
          "internalType": "uint256",
          "name": "id",
          "type": "uint256"
        },
        {
          "internalType": "uint256",
          "name": "amount",
          "type": "uint256"
        },
        {
          "internalType": "uint256",
          "name": "rate",
          "type": "uint256"
        },
        {
          "internalType": "uint256",
          "name": "initDate",
          "type": "uint256"
        },
        {
          "internalType": "enum GBCDeFi.borrowNFTStatus",
          "name": "status",
          "type": "uint8"
        },
        {
          "internalType": "address",
          "name": "owner",
          "type": "address"
        }
      ],
      "stateMutability": "view",
      "type": "function",
      "constant": true
    },
    {
      "inputs": [],
      "name": "totalSupply",
      "outputs": [
        {
          "internalType": "uint256",
          "name": "",
          "type": "uint256"
        }
      ],
      "stateMutability": "view",
      "type": "function",
      "constant": true
    },
    {
      "inputs": [
        {
          "internalType": "address",
          "name": "from",
          "type": "address"
        },
        {
          "internalType": "address",
          "name": "to",
          "type": "address"
        },
        {
          "internalType": "uint256",
          "name": "tokenId",
          "type": "uint256"
        }
      ],
      "name": "transferFrom",
      "outputs": [],
      "stateMutability": "nonpayable",
      "type": "function"
    },
    {
      "inputs": [
        {
          "internalType": "address",
          "name": "_addborrower",
          "type": "address"
        },
        {
          "internalType": "uint256",
          "name": "_amount",
          "type": "uint256"
        }
      ],
      "name": "createTokenLoan",
      "outputs": [
        {
          "internalType": "uint256",
          "name": "",
          "type": "uint256"
        }
      ],
      "stateMutability": "payable",
      "type": "function",
      "payable": true
    },
    {
      "inputs": [
        {
          "internalType": "address",
          "name": "_addborrower",
          "type": "address"
        }
      ],
      "name": "getTotalValuePayTokenLoan",
      "outputs": [
        {
          "internalType": "uint256",
          "name": "",
          "type": "uint256"
        }
      ],
      "stateMutability": "view",
      "type": "function",
      "constant": true
    }
  ],
  "bytecode": "0x60806040523480156200001157600080fd5b506040518060400160405280600881526020017f47424320446546690000000000000000000000000000000000000000000000008152506040518060400160405280600781526020017f474243446546690000000000000000000000000000000000000000000000000081525081600090805190602001906200009692919062000165565b508060019080519060200190620000af92919062000165565b505050604051620000c090620001f6565b604051809103906000f080158015620000dd573d6000803e3d6000fd5b50600d60006101000a81548173ffffffffffffffffffffffffffffffffffffffff021916908373ffffffffffffffffffffffffffffffffffffffff16021790555033600a60006101000a81548173ffffffffffffffffffffffffffffffffffffffff021916908373ffffffffffffffffffffffffffffffffffffffff16021790555062000288565b828054620001739062000223565b90600052602060002090601f016020900481019282620001975760008555620001e3565b82601f10620001b257805160ff1916838001178555620001e3565b82800160010185558215620001e3579182015b82811115620001e2578251825591602001919060010190620001c5565b5b509050620001f2919062000204565b5090565b6103e58062003fc383390190565b5b808211156200021f57600081600090555060010162000205565b5090565b600060028204905060018216806200023c57607f821691505b6020821081141562000253576200025262000259565b5b50919050565b7f4e487b7100000000000000000000000000000000000000000000000000000000600052602260045260246000fd5b613d2b80620002986000396000f3fe60806040526004361061011f5760003560e01c80634f6ccce7116100a0578063a22cb46511610064578063a22cb46514610426578063b88d4fde1461044f578063c87b56dd14610478578063e4860339146104b5578063e985e9c5146104f75761011f565b80634f6ccce7146103145780636352211e1461035157806370a082311461038e5780637f70c754146103cb57806395d89b41146103fb5761011f565b806318160ddd116100e757806318160ddd1461022f57806323b872dd1461025a5780632f745c591461028357806342842e0e146102c0578063481c6a75146102e95761011f565b806301ffc9a71461012457806306fdde0314610161578063081812fc1461018c57806309318b97146101c9578063095ea7b314610206575b600080fd5b34801561013057600080fd5b5061014b60048036038101906101469190612a20565b610534565b6040516101589190612f0d565b60405180910390f35b34801561016d57600080fd5b506101766105ae565b6040516101839190612f28565b60405180910390f35b34801561019857600080fd5b506101b360048036038101906101ae9190612a72565b610640565b6040516101c09190612ea6565b60405180910390f35b3480156101d557600080fd5b506101f060048036038101906101eb9190612879565b6106c5565b6040516101fd91906131ea565b60405180910390f35b34801561021257600080fd5b5061022d600480360381019061022891906129e4565b6107a9565b005b34801561023b57600080fd5b506102446108c1565b60405161025191906131ea565b60405180910390f35b34801561026657600080fd5b50610281600480360381019061027c91906128de565b6108ce565b005b34801561028f57600080fd5b506102aa60048036038101906102a591906129e4565b61092e565b6040516102b791906131ea565b60405180910390f35b3480156102cc57600080fd5b506102e760048036038101906102e291906128de565b6109d3565b005b3480156102f557600080fd5b506102fe6109f3565b60405161030b9190612ea6565b60405180910390f35b34801561032057600080fd5b5061033b60048036038101906103369190612a72565b610a19565b60405161034891906131ea565b60405180910390f35b34801561035d57600080fd5b5061037860048036038101906103739190612a72565b610ab0565b6040516103859190612ea6565b60405180910390f35b34801561039a57600080fd5b506103b560048036038101906103b09190612879565b610b62565b6040516103c291906131ea565b60405180910390f35b6103e560048036038101906103e091906129e4565b610c1a565b6040516103f291906131ea565b60405180910390f35b34801561040757600080fd5b506104106110fa565b60405161041d9190612f28565b60405180910390f35b34801561043257600080fd5b5061044d600480360381019061044891906129a8565b61118c565b005b34801561045b57600080fd5b506104766004803603810190610471919061292d565b61130d565b005b34801561048457600080fd5b5061049f600480360381019061049a9190612a72565b61136f565b6040516104ac9190612f28565b60405180910390f35b3480156104c157600080fd5b506104dc60048036038101906104d79190612879565b611416565b6040516104ee96959493929190613205565b60405180910390f35b34801561050357600080fd5b5061051e600480360381019061051991906128a2565b61147f565b60405161052b9190612f0d565b60405180910390f35b60007f780e9d63000000000000000000000000000000000000000000000000000000007bffffffffffffffffffffffffffffffffffffffffffffffffffffffff1916827bffffffffffffffffffffffffffffffffffffffffffffffffffffffff191614806105a757506105a682611513565b5b9050919050565b6060600080546105bd906134ef565b80601f01602080910402602001604051908101604052809291908181526020018280546105e9906134ef565b80156106365780601f1061060b57610100808354040283529160200191610636565b820191906000526020600020905b81548152906001019060200180831161061957829003601f168201915b5050505050905090565b600061064b826115f5565b61068a576040517f08c379a0000000000000000000000000000000000000000000000000000000008152600401610681906130ea565b60405180910390fd5b6004600083815260200190815260200160002060009054906101000a900473ffffffffffffffffffffffffffffffffffffffff169050919050565b600080600c60008473ffffffffffffffffffffffffffffffffffffffff1673ffffffffffffffffffffffffffffffffffffffff16815260200190815260200160002060010154141561074c576040517f08c379a0000000000000000000000000000000000000000000000000000000008152600401610743906131ca565b60405180910390fd5b61075582611661565b600c60008473ffffffffffffffffffffffffffffffffffffffff1673ffffffffffffffffffffffffffffffffffffffff168152602001908152602001600020600101546107a291906132ff565b9050919050565b60006107b482610ab0565b90508073ffffffffffffffffffffffffffffffffffffffff168373ffffffffffffffffffffffffffffffffffffffff161415610825576040517f08c379a000000000000000000000000000000000000000000000000000000000815260040161081c9061316a565b60405180910390fd5b8073ffffffffffffffffffffffffffffffffffffffff1661084461188c565b73ffffffffffffffffffffffffffffffffffffffff16148061087357506108728161086d61188c565b61147f565b5b6108b2576040517f08c379a00000000000000000000000000000000000000000000000000000000081526004016108a99061304a565b60405180910390fd5b6108bc8383611894565b505050565b6000600880549050905090565b6108df6108d961188c565b8261194d565b61091e576040517f08c379a00000000000000000000000000000000000000000000000000000000081526004016109159061318a565b60405180910390fd5b610929838383611a2b565b505050565b600061093983610b62565b821061097a576040517f08c379a000000000000000000000000000000000000000000000000000000000815260040161097190612f8a565b60405180910390fd5b600660008473ffffffffffffffffffffffffffffffffffffffff1673ffffffffffffffffffffffffffffffffffffffff168152602001908152602001600020600083815260200190815260200160002054905092915050565b6109ee8383836040518060200160405280600081525061130d565b505050565b600a60009054906101000a900473ffffffffffffffffffffffffffffffffffffffff1681565b6000610a236108c1565b8210610a64576040517f08c379a0000000000000000000000000000000000000000000000000000000008152600401610a5b906131aa565b60405180910390fd5b60088281548110610a9e577f4e487b7100000000000000000000000000000000000000000000000000000000600052603260045260246000fd5b90600052602060002001549050919050565b6000806002600084815260200190815260200160002060009054906101000a900473ffffffffffffffffffffffffffffffffffffffff169050600073ffffffffffffffffffffffffffffffffffffffff168173ffffffffffffffffffffffffffffffffffffffff161415610b59576040517f08c379a0000000000000000000000000000000000000000000000000000000008152600401610b509061308a565b60405180910390fd5b80915050919050565b60008073ffffffffffffffffffffffffffffffffffffffff168273ffffffffffffffffffffffffffffffffffffffff161415610bd3576040517f08c379a0000000000000000000000000000000000000000000000000000000008152600401610bca9061306a565b60405180910390fd5b600360008373ffffffffffffffffffffffffffffffffffffffff1673ffffffffffffffffffffffffffffffffffffffff168152602001908152602001600020549050919050565b6000600a60009054906101000a900473ffffffffffffffffffffffffffffffffffffffff1673ffffffffffffffffffffffffffffffffffffffff163373ffffffffffffffffffffffffffffffffffffffff1614610cac576040517f08c379a0000000000000000000000000000000000000000000000000000000008152600401610ca3906130aa565b60405180910390fd5b600073ffffffffffffffffffffffffffffffffffffffff168373ffffffffffffffffffffffffffffffffffffffff1614158015610d165750600073ffffffffffffffffffffffffffffffffffffffff163373ffffffffffffffffffffffffffffffffffffffff1614155b610d55576040517f08c379a0000000000000000000000000000000000000000000000000000000008152600401610d4c9061314a565b60405180910390fd5b60008211610d98576040517f08c379a0000000000000000000000000000000000000000000000000000000008152600401610d8f90612f4a565b60405180910390fd5b6000600c60008573ffffffffffffffffffffffffffffffffffffffff1673ffffffffffffffffffffffffffffffffffffffff1681526020019081526020016000206001015414610e1d576040517f08c379a0000000000000000000000000000000000000000000000000000000008152600401610e1490612f6a565b60405180910390fd5b60006040518060c00160405280600b548152602001848152602001600d60009054906101000a900473ffffffffffffffffffffffffffffffffffffffff1673ffffffffffffffffffffffffffffffffffffffff1663679aefce6040518163ffffffff1660e01b815260040160206040518083038186803b158015610ea057600080fd5b505afa158015610eb4573d6000803e3d6000fd5b505050506040513d601f19601f82011682018060405250810190610ed89190612a9b565b815260200142815260200160006001811115610f1d577f4e487b7100000000000000000000000000000000000000000000000000000000600052602160045260246000fd5b81526020018573ffffffffffffffffffffffffffffffffffffffff16815250905080600c60008673ffffffffffffffffffffffffffffffffffffffff1673ffffffffffffffffffffffffffffffffffffffff1681526020019081526020016000206000820151816000015560208201518160010155604082015181600201556060820151816003015560808201518160040160006101000a81548160ff02191690836001811115610ff7577f4e487b7100000000000000000000000000000000000000000000000000000000600052602160045260246000fd5b021790555060a08201518160040160016101000a81548173ffffffffffffffffffffffffffffffffffffffff021916908373ffffffffffffffffffffffffffffffffffffffff16021790555090505061105233600b54611c87565b82600c60008673ffffffffffffffffffffffffffffffffffffffff1673ffffffffffffffffffffffffffffffffffffffff16815260200190815260200160002060010154146110ca577f4e487b7100000000000000000000000000000000000000000000000000000000600052600160045260246000fd5b600b60008154809291906110dd90613552565b91905055506001600b546110f191906133e0565b91505092915050565b606060018054611109906134ef565b80601f0160208091040260200160405190810160405280929190818152602001828054611135906134ef565b80156111825780601f1061115757610100808354040283529160200191611182565b820191906000526020600020905b81548152906001019060200180831161116557829003601f168201915b5050505050905090565b61119461188c565b73ffffffffffffffffffffffffffffffffffffffff168273ffffffffffffffffffffffffffffffffffffffff161415611202576040517f08c379a00000000000000000000000000000000000000000000000000000000081526004016111f99061300a565b60405180910390fd5b806005600061120f61188c565b73ffffffffffffffffffffffffffffffffffffffff1673ffffffffffffffffffffffffffffffffffffffff16815260200190815260200160002060008473ffffffffffffffffffffffffffffffffffffffff1673ffffffffffffffffffffffffffffffffffffffff16815260200190815260200160002060006101000a81548160ff0219169083151502179055508173ffffffffffffffffffffffffffffffffffffffff166112bc61188c565b73ffffffffffffffffffffffffffffffffffffffff167f17307eab39ab6107e8899845ad3d59bd9653f200f220920489ca2b5937696c31836040516113019190612f0d565b60405180910390a35050565b61131e61131861188c565b8361194d565b61135d576040517f08c379a00000000000000000000000000000000000000000000000000000000081526004016113549061318a565b60405180910390fd5b61136984848484611ca5565b50505050565b606061137a826115f5565b6113b9576040517f08c379a00000000000000000000000000000000000000000000000000000000081526004016113b09061312a565b60405180910390fd5b60006113c3611d01565b905060008151116113e3576040518060200160405280600081525061140e565b806113ed84611d18565b6040516020016113fe929190612e82565b6040516020818303038152906040525b915050919050565b600c6020528060005260406000206000915090508060000154908060010154908060020154908060030154908060040160009054906101000a900460ff16908060040160019054906101000a900473ffffffffffffffffffffffffffffffffffffffff16905086565b6000600560008473ffffffffffffffffffffffffffffffffffffffff1673ffffffffffffffffffffffffffffffffffffffff16815260200190815260200160002060008373ffffffffffffffffffffffffffffffffffffffff1673ffffffffffffffffffffffffffffffffffffffff16815260200190815260200160002060009054906101000a900460ff16905092915050565b60007f80ac58cd000000000000000000000000000000000000000000000000000000007bffffffffffffffffffffffffffffffffffffffffffffffffffffffff1916827bffffffffffffffffffffffffffffffffffffffffffffffffffffffff191614806115de57507f5b5e139f000000000000000000000000000000000000000000000000000000007bffffffffffffffffffffffffffffffffffffffffffffffffffffffff1916827bffffffffffffffffffffffffffffffffffffffffffffffffffffffff1916145b806115ee57506115ed82611ec5565b5b9050919050565b60008073ffffffffffffffffffffffffffffffffffffffff166002600084815260200190815260200160002060009054906101000a900473ffffffffffffffffffffffffffffffffffffffff1673ffffffffffffffffffffffffffffffffffffffff1614159050919050565b600080600c60008473ffffffffffffffffffffffffffffffffffffffff1673ffffffffffffffffffffffffffffffffffffffff1681526020019081526020016000206001015414156116e8576040517f08c379a00000000000000000000000000000000000000000000000000000000081526004016116df906131ca565b60405180910390fd5b6000806018603c80600c60008873ffffffffffffffffffffffffffffffffffffffff1673ffffffffffffffffffffffffffffffffffffffff168152602001908152602001600020600301544261173e91906133e0565b6117489190613355565b6117529190613355565b61175c9190613355565b116117685760016117da565b6018603c80600c60008773ffffffffffffffffffffffffffffffffffffffff1673ffffffffffffffffffffffffffffffffffffffff16815260200190815260200160002060030154426117bb91906133e0565b6117c59190613355565b6117cf9190613355565b6117d99190613355565b5b9050612710600c60008573ffffffffffffffffffffffffffffffffffffffff1673ffffffffffffffffffffffffffffffffffffffff16815260200190815260200160002060020154600c60008673ffffffffffffffffffffffffffffffffffffffff1673ffffffffffffffffffffffffffffffffffffffff1681526020019081526020016000206001015461186f9190613386565b6118799190613355565b816118849190613386565b915050919050565b600033905090565b816004600083815260200190815260200160002060006101000a81548173ffffffffffffffffffffffffffffffffffffffff021916908373ffffffffffffffffffffffffffffffffffffffff160217905550808273ffffffffffffffffffffffffffffffffffffffff1661190783610ab0565b73ffffffffffffffffffffffffffffffffffffffff167f8c5be1e5ebec7d5bd14f71427d1e84f3dd0314c0f7b2291e5b200ac8c7c3b92560405160405180910390a45050565b6000611958826115f5565b611997576040517f08c379a000000000000000000000000000000000000000000000000000000000815260040161198e9061302a565b60405180910390fd5b60006119a283610ab0565b90508073ffffffffffffffffffffffffffffffffffffffff168473ffffffffffffffffffffffffffffffffffffffff161480611a1157508373ffffffffffffffffffffffffffffffffffffffff166119f984610640565b73ffffffffffffffffffffffffffffffffffffffff16145b80611a225750611a21818561147f565b5b91505092915050565b8273ffffffffffffffffffffffffffffffffffffffff16611a4b82610ab0565b73ffffffffffffffffffffffffffffffffffffffff1614611aa1576040517f08c379a0000000000000000000000000000000000000000000000000000000008152600401611a989061310a565b60405180910390fd5b600073ffffffffffffffffffffffffffffffffffffffff168273ffffffffffffffffffffffffffffffffffffffff161415611b11576040517f08c379a0000000000000000000000000000000000000000000000000000000008152600401611b0890612fea565b60405180910390fd5b611b1c838383611f2f565b611b27600082611894565b6001600360008573ffffffffffffffffffffffffffffffffffffffff1673ffffffffffffffffffffffffffffffffffffffff1681526020019081526020016000206000828254611b7791906133e0565b925050819055506001600360008473ffffffffffffffffffffffffffffffffffffffff1673ffffffffffffffffffffffffffffffffffffffff1681526020019081526020016000206000828254611bce91906132ff565b92505081905550816002600083815260200190815260200160002060006101000a81548173ffffffffffffffffffffffffffffffffffffffff021916908373ffffffffffffffffffffffffffffffffffffffff160217905550808273ffffffffffffffffffffffffffffffffffffffff168473ffffffffffffffffffffffffffffffffffffffff167fddf252ad1be2c89b69c2b068fc378daa952ba7f163c4a11628f55a4df523b3ef60405160405180910390a4505050565b611ca1828260405180602001604052806000815250612043565b5050565b611cb0848484611a2b565b611cbc8484848461209e565b611cfb576040517f08c379a0000000000000000000000000000000000000000000000000000000008152600401611cf290612faa565b60405180910390fd5b50505050565b606060405180602001604052806000815250905090565b60606000821415611d60576040518060400160405280600181526020017f30000000000000000000000000000000000000000000000000000000000000008152509050611ec0565b600082905060005b60008214611d92578080611d7b90613552565b915050600a82611d8b9190613355565b9150611d68565b60008167ffffffffffffffff811115611dd4577f4e487b7100000000000000000000000000000000000000000000000000000000600052604160045260246000fd5b6040519080825280601f01601f191660200182016040528015611e065781602001600182028036833780820191505090505b5090505b60008514611eb957600182611e1f91906133e0565b9150600a85611e2e919061359b565b6030611e3a91906132ff565b60f81b818381518110611e76577f4e487b7100000000000000000000000000000000000000000000000000000000600052603260045260246000fd5b60200101907effffffffffffffffffffffffffffffffffffffffffffffffffffffffffffff1916908160001a905350600a85611eb29190613355565b9450611e0a565b8093505050505b919050565b60007f01ffc9a7000000000000000000000000000000000000000000000000000000007bffffffffffffffffffffffffffffffffffffffffffffffffffffffff1916827bffffffffffffffffffffffffffffffffffffffffffffffffffffffff1916149050919050565b611f3a838383612235565b600073ffffffffffffffffffffffffffffffffffffffff168373ffffffffffffffffffffffffffffffffffffffff161415611f7d57611f788161223a565b611fbc565b8173ffffffffffffffffffffffffffffffffffffffff168373ffffffffffffffffffffffffffffffffffffffff1614611fbb57611fba8382612283565b5b5b600073ffffffffffffffffffffffffffffffffffffffff168273ffffffffffffffffffffffffffffffffffffffff161415611fff57611ffa816123f0565b61203e565b8273ffffffffffffffffffffffffffffffffffffffff168273ffffffffffffffffffffffffffffffffffffffff161461203d5761203c8282612533565b5b5b505050565b61204d83836125b2565b61205a600084848461209e565b612099576040517f08c379a000000000000000000000000000000000000000000000000000000000815260040161209090612faa565b60405180910390fd5b505050565b60006120bf8473ffffffffffffffffffffffffffffffffffffffff16612780565b15612228578373ffffffffffffffffffffffffffffffffffffffff1663150b7a026120e861188c565b8786866040518563ffffffff1660e01b815260040161210a9493929190612ec1565b602060405180830381600087803b15801561212457600080fd5b505af192505050801561215557506040513d601f19601f820116820180604052508101906121529190612a49565b60015b6121d8573d8060008114612185576040519150601f19603f3d011682016040523d82523d6000602084013e61218a565b606091505b506000815114156121d0576040517f08c379a00000000000000000000000000000000000000000000000000000000081526004016121c790612faa565b60405180910390fd5b805181602001fd5b63150b7a0260e01b7bffffffffffffffffffffffffffffffffffffffffffffffffffffffff1916817bffffffffffffffffffffffffffffffffffffffffffffffffffffffff19161491505061222d565b600190505b949350505050565b505050565b6008805490506009600083815260200190815260200160002081905550600881908060018154018082558091505060019003906000526020600020016000909190919091505550565b6000600161229084610b62565b61229a91906133e0565b905060006007600084815260200190815260200160002054905081811461237f576000600660008673ffffffffffffffffffffffffffffffffffffffff1673ffffffffffffffffffffffffffffffffffffffff168152602001908152602001600020600084815260200190815260200160002054905080600660008773ffffffffffffffffffffffffffffffffffffffff1673ffffffffffffffffffffffffffffffffffffffff168152602001908152602001600020600084815260200190815260200160002081905550816007600083815260200190815260200160002081905550505b6007600084815260200190815260200160002060009055600660008573ffffffffffffffffffffffffffffffffffffffff1673ffffffffffffffffffffffffffffffffffffffff16815260200190815260200160002060008381526020019081526020016000206000905550505050565b6000600160088054905061240491906133e0565b905060006009600084815260200190815260200160002054905060006008838154811061245a577f4e487b7100000000000000000000000000000000000000000000000000000000600052603260045260246000fd5b9060005260206000200154905080600883815481106124a2577f4e487b7100000000000000000000000000000000000000000000000000000000600052603260045260246000fd5b906000526020600020018190555081600960008381526020019081526020016000208190555060096000858152602001908152602001600020600090556008805480612517577f4e487b7100000000000000000000000000000000000000000000000000000000600052603160045260246000fd5b6001900381819060005260206000200160009055905550505050565b600061253e83610b62565b905081600660008573ffffffffffffffffffffffffffffffffffffffff1673ffffffffffffffffffffffffffffffffffffffff168152602001908152602001600020600083815260200190815260200160002081905550806007600084815260200190815260200160002081905550505050565b600073ffffffffffffffffffffffffffffffffffffffff168273ffffffffffffffffffffffffffffffffffffffff161415612622576040517f08c379a0000000000000000000000000000000000000000000000000000000008152600401612619906130ca565b60405180910390fd5b61262b816115f5565b1561266b576040517f08c379a000000000000000000000000000000000000000000000000000000000815260040161266290612fca565b60405180910390fd5b61267760008383611f2f565b6001600360008473ffffffffffffffffffffffffffffffffffffffff1673ffffffffffffffffffffffffffffffffffffffff16815260200190815260200160002060008282546126c791906132ff565b92505081905550816002600083815260200190815260200160002060006101000a81548173ffffffffffffffffffffffffffffffffffffffff021916908373ffffffffffffffffffffffffffffffffffffffff160217905550808273ffffffffffffffffffffffffffffffffffffffff16600073ffffffffffffffffffffffffffffffffffffffff167fddf252ad1be2c89b69c2b068fc378daa952ba7f163c4a11628f55a4df523b3ef60405160405180910390a45050565b600080823b905060008111915050919050565b60006127a66127a18461328b565b613266565b9050828152602081018484840111156127be57600080fd5b6127c98482856134ad565b509392505050565b6000813590506127e081613c99565b92915050565b6000813590506127f581613cb0565b92915050565b60008135905061280a81613cc7565b92915050565b60008151905061281f81613cc7565b92915050565b600082601f83011261283657600080fd5b8135612846848260208601612793565b91505092915050565b60008135905061285e81613cde565b92915050565b60008151905061287381613cde565b92915050565b60006020828403121561288b57600080fd5b6000612899848285016127d1565b91505092915050565b600080604083850312156128b557600080fd5b60006128c3858286016127d1565b92505060206128d4858286016127d1565b9150509250929050565b6000806000606084860312156128f357600080fd5b6000612901868287016127d1565b9350506020612912868287016127d1565b92505060406129238682870161284f565b9150509250925092565b6000806000806080858703121561294357600080fd5b6000612951878288016127d1565b9450506020612962878288016127d1565b93505060406129738782880161284f565b925050606085013567ffffffffffffffff81111561299057600080fd5b61299c87828801612825565b91505092959194509250565b600080604083850312156129bb57600080fd5b60006129c9858286016127d1565b92505060206129da858286016127e6565b9150509250929050565b600080604083850312156129f757600080fd5b6000612a05858286016127d1565b9250506020612a168582860161284f565b9150509250929050565b600060208284031215612a3257600080fd5b6000612a40848285016127fb565b91505092915050565b600060208284031215612a5b57600080fd5b6000612a6984828501612810565b91505092915050565b600060208284031215612a8457600080fd5b6000612a928482850161284f565b91505092915050565b600060208284031215612aad57600080fd5b6000612abb84828501612864565b91505092915050565b612acd81613414565b82525050565b612adc81613426565b82525050565b6000612aed826132bc565b612af781856132d2565b9350612b078185602086016134bc565b612b10816136b7565b840191505092915050565b612b248161349b565b82525050565b6000612b35826132c7565b612b3f81856132e3565b9350612b4f8185602086016134bc565b612b58816136b7565b840191505092915050565b6000612b6e826132c7565b612b7881856132f4565b9350612b888185602086016134bc565b80840191505092915050565b6000612ba1601c836132e3565b9150612bac826136c8565b602082019050919050565b6000612bc46029836132e3565b9150612bcf826136f1565b604082019050919050565b6000612be7602b836132e3565b9150612bf282613740565b604082019050919050565b6000612c0a6032836132e3565b9150612c158261378f565b604082019050919050565b6000612c2d601c836132e3565b9150612c38826137de565b602082019050919050565b6000612c506024836132e3565b9150612c5b82613807565b604082019050919050565b6000612c736019836132e3565b9150612c7e82613856565b602082019050919050565b6000612c96602c836132e3565b9150612ca18261387f565b604082019050919050565b6000612cb96038836132e3565b9150612cc4826138ce565b604082019050919050565b6000612cdc602a836132e3565b9150612ce78261391d565b604082019050919050565b6000612cff6029836132e3565b9150612d0a8261396c565b604082019050919050565b6000612d226021836132e3565b9150612d2d826139bb565b604082019050919050565b6000612d456020836132e3565b9150612d5082613a0a565b602082019050919050565b6000612d68602c836132e3565b9150612d7382613a33565b604082019050919050565b6000612d8b6029836132e3565b9150612d9682613a82565b604082019050919050565b6000612dae602f836132e3565b9150612db982613ad1565b604082019050919050565b6000612dd1601f836132e3565b9150612ddc82613b20565b602082019050919050565b6000612df46021836132e3565b9150612dff82613b49565b604082019050919050565b6000612e176031836132e3565b9150612e2282613b98565b604082019050919050565b6000612e3a602c836132e3565b9150612e4582613be7565b604082019050919050565b6000612e5d602b836132e3565b9150612e6882613c36565b604082019050919050565b612e7c81613491565b82525050565b6000612e8e8285612b63565b9150612e9a8284612b63565b91508190509392505050565b6000602082019050612ebb6000830184612ac4565b92915050565b6000608082019050612ed66000830187612ac4565b612ee36020830186612ac4565b612ef06040830185612e73565b8181036060830152612f028184612ae2565b905095945050505050565b6000602082019050612f226000830184612ad3565b92915050565b60006020820190508181036000830152612f428184612b2a565b905092915050565b60006020820190508181036000830152612f6381612b94565b9050919050565b60006020820190508181036000830152612f8381612bb7565b9050919050565b60006020820190508181036000830152612fa381612bda565b9050919050565b60006020820190508181036000830152612fc381612bfd565b9050919050565b60006020820190508181036000830152612fe381612c20565b9050919050565b6000602082019050818103600083015261300381612c43565b9050919050565b6000602082019050818103600083015261302381612c66565b9050919050565b6000602082019050818103600083015261304381612c89565b9050919050565b6000602082019050818103600083015261306381612cac565b9050919050565b6000602082019050818103600083015261308381612ccf565b9050919050565b600060208201905081810360008301526130a381612cf2565b9050919050565b600060208201905081810360008301526130c381612d15565b9050919050565b600060208201905081810360008301526130e381612d38565b9050919050565b6000602082019050818103600083015261310381612d5b565b9050919050565b6000602082019050818103600083015261312381612d7e565b9050919050565b6000602082019050818103600083015261314381612da1565b9050919050565b6000602082019050818103600083015261316381612dc4565b9050919050565b6000602082019050818103600083015261318381612de7565b9050919050565b600060208201905081810360008301526131a381612e0a565b9050919050565b600060208201905081810360008301526131c381612e2d565b9050919050565b600060208201905081810360008301526131e381612e50565b9050919050565b60006020820190506131ff6000830184612e73565b92915050565b600060c08201905061321a6000830189612e73565b6132276020830188612e73565b6132346040830187612e73565b6132416060830186612e73565b61324e6080830185612b1b565b61325b60a0830184612ac4565b979650505050505050565b6000613270613281565b905061327c8282613521565b919050565b6000604051905090565b600067ffffffffffffffff8211156132a6576132a5613688565b5b6132af826136b7565b9050602081019050919050565b600081519050919050565b600081519050919050565b600082825260208201905092915050565b600082825260208201905092915050565b600081905092915050565b600061330a82613491565b915061331583613491565b9250827fffffffffffffffffffffffffffffffffffffffffffffffffffffffffffffffff0382111561334a576133496135cc565b5b828201905092915050565b600061336082613491565b915061336b83613491565b92508261337b5761337a6135fb565b5b828204905092915050565b600061339182613491565b915061339c83613491565b9250817fffffffffffffffffffffffffffffffffffffffffffffffffffffffffffffffff04831182151516156133d5576133d46135cc565b5b828202905092915050565b60006133eb82613491565b91506133f683613491565b925082821015613409576134086135cc565b5b828203905092915050565b600061341f82613471565b9050919050565b60008115159050919050565b60007fffffffff0000000000000000000000000000000000000000000000000000000082169050919050565b600081905061346c82613c85565b919050565b600073ffffffffffffffffffffffffffffffffffffffff82169050919050565b6000819050919050565b60006134a68261345e565b9050919050565b82818337600083830152505050565b60005b838110156134da5780820151818401526020810190506134bf565b838111156134e9576000848401525b50505050565b6000600282049050600182168061350757607f821691505b6020821081141561351b5761351a613659565b5b50919050565b61352a826136b7565b810181811067ffffffffffffffff8211171561354957613548613688565b5b80604052505050565b600061355d82613491565b91507fffffffffffffffffffffffffffffffffffffffffffffffffffffffffffffffff8214156135905761358f6135cc565b5b600182019050919050565b60006135a682613491565b91506135b183613491565b9250826135c1576135c06135fb565b5b828206905092915050565b7f4e487b7100000000000000000000000000000000000000000000000000000000600052601160045260246000fd5b7f4e487b7100000000000000000000000000000000000000000000000000000000600052601260045260246000fd5b7f4e487b7100000000000000000000000000000000000000000000000000000000600052602160045260246000fd5b7f4e487b7100000000000000000000000000000000000000000000000000000000600052602260045260246000fd5b7f4e487b7100000000000000000000000000000000000000000000000000000000600052604160045260246000fd5b6000601f19601f8301169050919050565b7f47424320446546693a2063616e6e6f7420626f72726f77207a65726f00000000600082015250565b7f47424320446546693a2054686520626f72726f77657220616c7265616479206860008201527f61732061206c6f616e0000000000000000000000000000000000000000000000602082015250565b7f455243373231456e756d657261626c653a206f776e657220696e646578206f7560008201527f74206f6620626f756e6473000000000000000000000000000000000000000000602082015250565b7f4552433732313a207472616e7366657220746f206e6f6e20455243373231526560008201527f63656976657220696d706c656d656e7465720000000000000000000000000000602082015250565b7f4552433732313a20746f6b656e20616c7265616479206d696e74656400000000600082015250565b7f4552433732313a207472616e7366657220746f20746865207a65726f2061646460008201527f7265737300000000000000000000000000000000000000000000000000000000602082015250565b7f4552433732313a20617070726f766520746f2063616c6c657200000000000000600082015250565b7f4552433732313a206f70657261746f7220717565727920666f72206e6f6e657860008201527f697374656e7420746f6b656e0000000000000000000000000000000000000000602082015250565b7f4552433732313a20617070726f76652063616c6c6572206973206e6f74206f7760008201527f6e6572206e6f7220617070726f76656420666f7220616c6c0000000000000000602082015250565b7f4552433732313a2062616c616e636520717565727920666f7220746865207a6560008201527f726f206164647265737300000000000000000000000000000000000000000000602082015250565b7f4552433732313a206f776e657220717565727920666f72206e6f6e657869737460008201527f656e7420746f6b656e0000000000000000000000000000000000000000000000602082015250565b7f47424320446546693a20596f7520617265206e6f7420746865206d616e61676560008201527f7200000000000000000000000000000000000000000000000000000000000000602082015250565b7f4552433732313a206d696e7420746f20746865207a65726f2061646472657373600082015250565b7f4552433732313a20617070726f76656420717565727920666f72206e6f6e657860008201527f697374656e7420746f6b656e0000000000000000000000000000000000000000602082015250565b7f4552433732313a207472616e73666572206f6620746f6b656e2074686174206960008201527f73206e6f74206f776e0000000000000000000000000000000000000000000000602082015250565b7f4552433732314d657461646174613a2055524920717565727920666f72206e6f60008201527f6e6578697374656e7420746f6b656e0000000000000000000000000000000000602082015250565b7f47424320446546693a206465746563746564207a65726f206164647265737300600082015250565b7f4552433732313a20617070726f76616c20746f2063757272656e74206f776e6560008201527f7200000000000000000000000000000000000000000000000000000000000000602082015250565b7f4552433732313a207472616e736665722063616c6c6572206973206e6f74206f60008201527f776e6572206e6f7220617070726f766564000000000000000000000000000000602082015250565b7f455243373231456e756d657261626c653a20676c6f62616c20696e646578206f60008201527f7574206f6620626f756e64730000000000000000000000000000000000000000602082015250565b7f47424320446546693a2054686520626f72726f77657220646f6573206e6f742060008201527f686176652061206c6f616e000000000000000000000000000000000000000000602082015250565b60028110613c9657613c9561362a565b5b50565b613ca281613414565b8114613cad57600080fd5b50565b613cb981613426565b8114613cc457600080fd5b50565b613cd081613432565b8114613cdb57600080fd5b50565b613ce781613491565b8114613cf257600080fd5b5056fea26469706673582212204275f6cf5f0e45efb3cb5232e64018a0ffd67a7f8d1ca88e944c5dbd06c2bb8e64736f6c63430008030033608060405234801561001057600080fd5b506005600181905550336000806101000a81548173ffffffffffffffffffffffffffffffffffffffff021916908373ffffffffffffffffffffffffffffffffffffffff16021790555061037d806100686000396000f3fe608060405234801561001057600080fd5b50600436106100415760003560e01c8063086126d31461004657806334fcf43714610064578063679aefce14610080575b600080fd5b61004e61009e565b60405161005b919061025c565b60405180910390f35b61007e6004803603810190610079919061019e565b6100a4565b005b61008861017f565b604051610095919061025c565b60405180910390f35b60015481565b60008054906101000a900473ffffffffffffffffffffffffffffffffffffffff1673ffffffffffffffffffffffffffffffffffffffff163373ffffffffffffffffffffffffffffffffffffffff1614610132576040517f08c379a00000000000000000000000000000000000000000000000000000000081526004016101299061023c565b60405180910390fd5b60008111610175576040517f08c379a000000000000000000000000000000000000000000000000000000000815260040161016c9061021c565b60405180910390fd5b8060018190555050565b6000600154905090565b60008135905061019881610330565b92915050565b6000602082840312156101b057600080fd5b60006101be84828501610189565b91505092915050565b60006101d4602a83610277565b91506101df82610292565b604082019050919050565b60006101f7602183610277565b9150610202826102e1565b604082019050919050565b61021681610288565b82525050565b60006020820190508181036000830152610235816101c7565b9050919050565b60006020820190508181036000830152610255816101ea565b9050919050565b6000602082019050610271600083018461020d565b92915050565b600082825260208201905092915050565b6000819050919050565b7f47424320446546693a2056616c75652072617465206d757374206265206d6f7260008201527f6520746865207a65726f00000000000000000000000000000000000000000000602082015250565b7f47424320446546693a20596f7520617265206e6f7420746865206d616e61676560008201527f7200000000000000000000000000000000000000000000000000000000000000602082015250565b61033981610288565b811461034457600080fd5b5056fea26469706673582212200d2aeddaae4d4f5977ce604befb4acdcd3a712cbf98a57c15243e45ceef1323b64736f6c63430008030033",
  "immutableReferences": {},
  "source": "// SPDX-License-Identifier: MIT\r\npragma solidity ^0.8.0;\r\n\r\n//import \"https://github.com/OpenZeppelin/openzeppelin-contracts/blob/master/contracts/token/ERC721/ERC721.sol\";\r\n//import \"https://github.com/OpenZeppelin/openzeppelin-contracts/blob/master/contracts/token/ERC721/extensions/ERC721Enumerable.sol\";\r\nimport \"@openzeppelin/contracts/token/ERC721/ERC721.sol\";\r\nimport \"@openzeppelin/contracts/token/ERC721/extensions/ERC721Enumerable.sol\";\r\nimport \"./GBCDeFiOracleRate.sol\";\r\n\r\n\r\ncontract GBCDeFi is ERC721Enumerable {\r\n    enum borrowNFTStatus {BORROWED, PAYED}\r\n    address public manager;\r\n    uint256 private _tokenIndexCursor;\r\n\r\n    struct borrowNFT { \r\n        uint256 id;\r\n        uint256 amount;\r\n        uint256 rate;\r\n        uint256 initDate;\r\n        borrowNFTStatus status;\r\n        address owner;\r\n    }\r\n\r\n    mapping(address => borrowNFT) public tokens;\r\n    GBCDeFiOracleRate valueOracle;\r\n\r\n    constructor() public ERC721(\"GBC DeFi\", \"GBCDeFi\") {\r\n        valueOracle = new GBCDeFiOracleRate();\r\n        manager = msg.sender;\r\n    }\r\n\r\n    //Function to create loan token by borrower  \r\n    function createTokenLoan(address _addborrower, uint256 _amount) \r\n        public payable\r\n        onlyManager\r\n        returns (uint256)\r\n    {\r\n        // Checks:\r\n        require(\r\n            _addborrower != address(0) && msg.sender != address(0),\r\n            \"GBC DeFi: detected zero address\"\r\n        );\r\n        require(_amount > 0, \"GBC DeFi: cannot borrow zero\");\r\n        require(\r\n            tokens[_addborrower].amount == 0,\r\n            \"GBC DeFi: The borrower already has a loan\"\r\n        );\r\n\r\n        //Create token loan\r\n        borrowNFT memory newborrowNFT =\r\n            borrowNFT({\r\n                id: _tokenIndexCursor,\r\n                amount: _amount,\r\n                rate: valueOracle.getRate(),\r\n                initDate: block.timestamp,\r\n                status: borrowNFTStatus.BORROWED,\r\n                owner: _addborrower\r\n            });\r\n        tokens[_addborrower] = newborrowNFT;\r\n        _safeMint(msg.sender, _tokenIndexCursor);\r\n        assert(tokens[_addborrower].amount == _amount);\r\n        _tokenIndexCursor++;\r\n        return _tokenIndexCursor - 1;\r\n    }\r\n\r\n\r\n    //Function to get the value of the interest that the borrower needs to pay \r\n    function getvalueInterestLoan(address _addborrower)\r\n        private\r\n        view\r\n        returns (uint256)\r\n    {\r\n        //returns (uint){\r\n        require(\r\n            tokens[_addborrower].amount != 0,\r\n            \"GBC DeFi: The borrower does not have a loan\"\r\n        );\r\n        //To find the days that the borrower has the loan\r\n        uint256 daysLoan =\r\n            ((((block.timestamp - tokens[_addborrower].initDate) / 60) / 60) /\r\n                24) > 0\r\n                ? ((((block.timestamp - tokens[_addborrower].initDate) / 60) /\r\n                    60) / 24)\r\n                : 1;\r\n        return\r\n            (daysLoan) *\r\n            ((tokens[_addborrower].amount * tokens[_addborrower].rate) / 10000);\r\n    }\r\n\r\n    //Function to get the total value of the loan that the borrower needs to pay \r\n    function getTotalValuePayTokenLoan(address _addborrower) public view returns(uint256){\r\n        //returns (uint){\r\n        require(\r\n            tokens[_addborrower].amount != 0,\r\n            \"GBC DeFi: The borrower does not have a loan\"\r\n        );\r\n        return tokens[_addborrower].amount + getvalueInterestLoan(_addborrower);\r\n    }\r\n\r\n    modifier onlyManager() {\r\n        require(msg.sender == manager, \"GBC DeFi: You are not the manager\");\r\n        _;\r\n    }\r\n}\r\n//0xAb8483F64d9C6d1EcF9b849Ae677dD3315835cb2\r\n//0x4B20993Bc481177ec7E8f571ceCaE8A9e22C02db\r\n",
  "sourcePath": "C:/AdvanceSC/GBCDeFi/contracts/GBCDeFi.sol",
  "compiler": {
    "name": "solc",
    "version": "0.8.3+commit.8d00100c.Emscripten.clang"
  },
  "schemaVersion": "3.3.4",
  "updatedAt": "2021-04-04T14:34:00.310Z",
  "networkType": "ethereum",
  "devdoc": {
    "kind": "dev",
    "methods": {
      "approve(address,uint256)": {
        "details": "See {IERC721-approve}."
      },
      "balanceOf(address)": {
        "details": "See {IERC721-balanceOf}."
      },
      "getApproved(uint256)": {
        "details": "See {IERC721-getApproved}."
      },
      "isApprovedForAll(address,address)": {
        "details": "See {IERC721-isApprovedForAll}."
      },
      "name()": {
        "details": "See {IERC721Metadata-name}."
      },
      "ownerOf(uint256)": {
        "details": "See {IERC721-ownerOf}."
      },
      "safeTransferFrom(address,address,uint256)": {
        "details": "See {IERC721-safeTransferFrom}."
      },
      "safeTransferFrom(address,address,uint256,bytes)": {
        "details": "See {IERC721-safeTransferFrom}."
      },
      "setApprovalForAll(address,bool)": {
        "details": "See {IERC721-setApprovalForAll}."
      },
      "supportsInterface(bytes4)": {
        "details": "See {IERC165-supportsInterface}."
      },
      "symbol()": {
        "details": "See {IERC721Metadata-symbol}."
      },
      "tokenByIndex(uint256)": {
        "details": "See {IERC721Enumerable-tokenByIndex}."
      },
      "tokenOfOwnerByIndex(address,uint256)": {
        "details": "See {IERC721Enumerable-tokenOfOwnerByIndex}."
      },
      "tokenURI(uint256)": {
        "details": "See {IERC721Metadata-tokenURI}."
      },
      "totalSupply()": {
        "details": "See {IERC721Enumerable-totalSupply}."
      },
      "transferFrom(address,address,uint256)": {
        "details": "See {IERC721-transferFrom}."
      }
    },
    "version": 1
  },
  "userdoc": {
    "kind": "user",
    "methods": {},
    "version": 1
  }
}